{
  "address": "0x882115769F004b0966AE4E02CC5a25D0CEf2c0F0",
  "abi": [
    {
      "inputs": [
        {
          "internalType": "address",
          "name": "_owner",
          "type": "address"
        },
        {
          "internalType": "string",
          "name": "_name",
          "type": "string"
        },
        {
          "internalType": "string",
          "name": "_desc",
          "type": "string"
        }
      ],
      "stateMutability": "nonpayable",
      "type": "constructor"
    },
    {
      "anonymous": false,
      "inputs": [
        {
          "indexed": false,
          "internalType": "address",
          "name": "member",
          "type": "address"
        }
      ],
      "name": "MemberRevoked",
      "type": "event"
    },
    {
      "anonymous": false,
      "inputs": [
        {
          "indexed": false,
          "internalType": "address",
          "name": "newMember",
          "type": "address"
        },
        {
          "indexed": false,
          "internalType": "string",
          "name": "role",
          "type": "string"
        }
      ],
      "name": "NewMemberAdded",
      "type": "event"
    },
    {
      "anonymous": false,
      "inputs": [
        {
          "indexed": true,
          "internalType": "address",
          "name": "previousOwner",
          "type": "address"
        },
        {
          "indexed": true,
          "internalType": "address",
          "name": "newOwner",
          "type": "address"
        }
      ],
      "name": "OwnershipTransferred",
      "type": "event"
    },
    {
      "inputs": [
        {
          "internalType": "address",
          "name": "",
          "type": "address"
        }
      ],
      "name": "Members",
      "outputs": [
        {
          "internalType": "address",
          "name": "member",
          "type": "address"
        },
        {
          "internalType": "string",
          "name": "role",
          "type": "string"
        },
        {
          "internalType": "bool",
          "name": "access",
          "type": "bool"
        }
      ],
      "stateMutability": "view",
      "type": "function"
    },
    {
      "inputs": [
        {
          "internalType": "address",
          "name": "_dev",
          "type": "address"
        },
        {
          "internalType": "string",
          "name": "_role",
          "type": "string"
        }
      ],
      "name": "addMember",
      "outputs": [],
      "stateMutability": "nonpayable",
      "type": "function"
    },
    {
      "inputs": [],
      "name": "desc",
      "outputs": [
        {
          "internalType": "string",
          "name": "",
          "type": "string"
        }
      ],
      "stateMutability": "view",
      "type": "function"
    },
    {
      "inputs": [],
      "name": "name",
      "outputs": [
        {
          "internalType": "string",
          "name": "",
          "type": "string"
        }
      ],
      "stateMutability": "view",
      "type": "function"
    },
    {
      "inputs": [],
      "name": "owner",
      "outputs": [
        {
          "internalType": "address",
          "name": "",
          "type": "address"
        }
      ],
      "stateMutability": "view",
      "type": "function"
    },
    {
      "inputs": [],
      "name": "renounceOwnership",
      "outputs": [],
      "stateMutability": "nonpayable",
      "type": "function"
    },
    {
      "inputs": [
        {
          "internalType": "address",
          "name": "_dev",
          "type": "address"
        }
      ],
      "name": "revokeMember",
      "outputs": [],
      "stateMutability": "nonpayable",
      "type": "function"
    },
    {
      "inputs": [
        {
          "internalType": "address",
          "name": "newOwner",
          "type": "address"
        }
      ],
      "name": "transferOwnership",
      "outputs": [],
      "stateMutability": "nonpayable",
      "type": "function"
    }
  ],
  "transactionHash": "0x62b5f4621f5ed699a2421f7715e6ea83120b2b06aec4767d8065029c5334399f",
  "args": [
    "0x8626f6940E2eb28930eFb4CeF49B2d1F2C9C1199",
    "Test Project",
    "Test ProjectDesc"
  ],
  "numDeployments": 1,
  "solcInputHash": "46bdc93b0ef128e1815dafa846962ee6",
  "bytecode": "0x60806040523480156200001157600080fd5b506040516200160838038062001608833981810160405281019062000037919062000572565b620000576200004b620000a360201b60201c565b620000ab60201b60201c565b62000068836200016f60201b60201c565b816001908051906020019062000080929190620002c0565b50806002908051906020019062000099929190620002c0565b505050506200078c565b600033905090565b60008060009054906101000a900473ffffffffffffffffffffffffffffffffffffffff169050816000806101000a81548173ffffffffffffffffffffffffffffffffffffffff021916908373ffffffffffffffffffffffffffffffffffffffff1602179055508173ffffffffffffffffffffffffffffffffffffffff168173ffffffffffffffffffffffffffffffffffffffff167f8be0079c531659141344cd1fd0a4f28419497f9722a3daafe3b4186f6b6457e060405160405180910390a35050565b6200017f6200020660201b60201c565b600073ffffffffffffffffffffffffffffffffffffffff168173ffffffffffffffffffffffffffffffffffffffff161415620001f2576040517f08c379a0000000000000000000000000000000000000000000000000000000008152600401620001e99062000693565b60405180910390fd5b6200020381620000ab60201b60201c565b50565b62000216620000a360201b60201c565b73ffffffffffffffffffffffffffffffffffffffff166200023c6200029760201b60201c565b73ffffffffffffffffffffffffffffffffffffffff161462000295576040517f08c379a00000000000000000000000000000000000000000000000000000000081526004016200028c9062000705565b60405180910390fd5b565b60008060009054906101000a900473ffffffffffffffffffffffffffffffffffffffff16905090565b828054620002ce9062000756565b90600052602060002090601f016020900481019282620002f257600085556200033e565b82601f106200030d57805160ff19168380011785556200033e565b828001600101855582156200033e579182015b828111156200033d57825182559160200191906001019062000320565b5b5090506200034d919062000351565b5090565b5b808211156200036c57600081600090555060010162000352565b5090565b6000604051905090565b600080fd5b600080fd5b600073ffffffffffffffffffffffffffffffffffffffff82169050919050565b6000620003b18262000384565b9050919050565b620003c381620003a4565b8114620003cf57600080fd5b50565b600081519050620003e381620003b8565b92915050565b600080fd5b600080fd5b6000601f19601f8301169050919050565b7f4e487b7100000000000000000000000000000000000000000000000000000000600052604160045260246000fd5b6200043e82620003f3565b810181811067ffffffffffffffff8211171562000460576200045f62000404565b5b80604052505050565b60006200047562000370565b905062000483828262000433565b919050565b600067ffffffffffffffff821115620004a657620004a562000404565b5b620004b182620003f3565b9050602081019050919050565b60005b83811015620004de578082015181840152602081019050620004c1565b83811115620004ee576000848401525b50505050565b60006200050b620005058462000488565b62000469565b9050828152602081018484840111156200052a5762000529620003ee565b5b62000537848285620004be565b509392505050565b600082601f830112620005575762000556620003e9565b5b815162000569848260208601620004f4565b91505092915050565b6000806000606084860312156200058e576200058d6200037a565b5b60006200059e86828701620003d2565b935050602084015167ffffffffffffffff811115620005c257620005c16200037f565b5b620005d0868287016200053f565b925050604084015167ffffffffffffffff811115620005f457620005f36200037f565b5b62000602868287016200053f565b9150509250925092565b600082825260208201905092915050565b7f4f776e61626c653a206e6577206f776e657220697320746865207a65726f206160008201527f6464726573730000000000000000000000000000000000000000000000000000602082015250565b60006200067b6026836200060c565b915062000688826200061d565b604082019050919050565b60006020820190508181036000830152620006ae816200066c565b9050919050565b7f4f776e61626c653a2063616c6c6572206973206e6f7420746865206f776e6572600082015250565b6000620006ed6020836200060c565b9150620006fa82620006b5565b602082019050919050565b600060208201905081810360008301526200072081620006de565b9050919050565b7f4e487b7100000000000000000000000000000000000000000000000000000000600052602260045260246000fd5b600060028204905060018216806200076f57607f821691505b6020821081141562000786576200078562000727565b5b50919050565b610e6c806200079c6000396000f3fe608060405234801561001057600080fd5b50600436106100885760003560e01c80638da5cb5b1161005b5780638da5cb5b146100ef578063c127c2471461010d578063f2fde38b14610129578063fd0f01661461014557610088565b806306fdde031461008d57806355f150f1146100ab578063715018a6146100c95780638adf23b9146100d3575b600080fd5b610095610177565b6040516100a29190610966565b60405180910390f35b6100b3610205565b6040516100c09190610966565b60405180910390f35b6100d1610293565b005b6100ed60048036038101906100e891906109fa565b6102a7565b005b6100f7610344565b6040516101049190610a36565b60405180910390f35b61012760048036038101906101229190610b86565b61036d565b005b610143600480360381019061013e91906109fa565b61057d565b005b61015f600480360381019061015a91906109fa565b610601565b60405161016e93929190610bfd565b60405180910390f35b6001805461018490610c6a565b80601f01602080910402602001604051908101604052809291908181526020018280546101b090610c6a565b80156101fd5780601f106101d2576101008083540402835291602001916101fd565b820191906000526020600020905b8154815290600101906020018083116101e057829003601f168201915b505050505081565b6002805461021290610c6a565b80601f016020809104026020016040519081016040528092919081815260200182805461023e90610c6a565b801561028b5780601f106102605761010080835404028352916020019161028b565b820191906000526020600020905b81548152906001019060200180831161026e57829003601f168201915b505050505081565b61029b6106e0565b6102a5600061075e565b565b6102af6106e0565b6000600360008373ffffffffffffffffffffffffffffffffffffffff1673ffffffffffffffffffffffffffffffffffffffff16815260200190815260200160002060020160006101000a81548160ff0219169083151502179055507f745cd29407db644ed93e3ceb61cbcab96d1dfb496989ac5d5bf514fc5a9fab9c816040516103399190610a36565b60405180910390a150565b60008060009054906101000a900473ffffffffffffffffffffffffffffffffffffffff16905090565b6103756106e0565b600073ffffffffffffffffffffffffffffffffffffffff16600360008473ffffffffffffffffffffffffffffffffffffffff1673ffffffffffffffffffffffffffffffffffffffff16815260200190815260200160002060000160009054906101000a900473ffffffffffffffffffffffffffffffffffffffff1673ffffffffffffffffffffffffffffffffffffffff1614610446576040517f08c379a000000000000000000000000000000000000000000000000000000000815260040161043d90610ce8565b60405180910390fd5b60405180606001604052808373ffffffffffffffffffffffffffffffffffffffff16815260200182815260200160011515815250600360008473ffffffffffffffffffffffffffffffffffffffff1673ffffffffffffffffffffffffffffffffffffffff16815260200190815260200160002060008201518160000160006101000a81548173ffffffffffffffffffffffffffffffffffffffff021916908373ffffffffffffffffffffffffffffffffffffffff160217905550602082015181600101908051906020019061051c92919061082a565b5060408201518160020160006101000a81548160ff0219169083151502179055509050507f15e74064559e13cf6e29eaffbf8d6ebf2543f021ac8185c16bd5e7b8b84ec68a8282604051610571929190610d08565b60405180910390a15050565b6105856106e0565b600073ffffffffffffffffffffffffffffffffffffffff168173ffffffffffffffffffffffffffffffffffffffff1614156105f5576040517f08c379a00000000000000000000000000000000000000000000000000000000081526004016105ec90610daa565b60405180910390fd5b6105fe8161075e565b50565b60036020528060005260406000206000915090508060000160009054906101000a900473ffffffffffffffffffffffffffffffffffffffff169080600101805461064a90610c6a565b80601f016020809104026020016040519081016040528092919081815260200182805461067690610c6a565b80156106c35780601f10610698576101008083540402835291602001916106c3565b820191906000526020600020905b8154815290600101906020018083116106a657829003601f168201915b5050505050908060020160009054906101000a900460ff16905083565b6106e8610822565b73ffffffffffffffffffffffffffffffffffffffff16610706610344565b73ffffffffffffffffffffffffffffffffffffffff161461075c576040517f08c379a000000000000000000000000000000000000000000000000000000000815260040161075390610e16565b60405180910390fd5b565b60008060009054906101000a900473ffffffffffffffffffffffffffffffffffffffff169050816000806101000a81548173ffffffffffffffffffffffffffffffffffffffff021916908373ffffffffffffffffffffffffffffffffffffffff1602179055508173ffffffffffffffffffffffffffffffffffffffff168173ffffffffffffffffffffffffffffffffffffffff167f8be0079c531659141344cd1fd0a4f28419497f9722a3daafe3b4186f6b6457e060405160405180910390a35050565b600033905090565b82805461083690610c6a565b90600052602060002090601f016020900481019282610858576000855561089f565b82601f1061087157805160ff191683800117855561089f565b8280016001018555821561089f579182015b8281111561089e578251825591602001919060010190610883565b5b5090506108ac91906108b0565b5090565b5b808211156108c95760008160009055506001016108b1565b5090565b600081519050919050565b600082825260208201905092915050565b60005b838110156109075780820151818401526020810190506108ec565b83811115610916576000848401525b50505050565b6000601f19601f8301169050919050565b6000610938826108cd565b61094281856108d8565b93506109528185602086016108e9565b61095b8161091c565b840191505092915050565b60006020820190508181036000830152610980818461092d565b905092915050565b6000604051905090565b600080fd5b600080fd5b600073ffffffffffffffffffffffffffffffffffffffff82169050919050565b60006109c78261099c565b9050919050565b6109d7816109bc565b81146109e257600080fd5b50565b6000813590506109f4816109ce565b92915050565b600060208284031215610a1057610a0f610992565b5b6000610a1e848285016109e5565b91505092915050565b610a30816109bc565b82525050565b6000602082019050610a4b6000830184610a27565b92915050565b600080fd5b600080fd5b7f4e487b7100000000000000000000000000000000000000000000000000000000600052604160045260246000fd5b610a938261091c565b810181811067ffffffffffffffff82111715610ab257610ab1610a5b565b5b80604052505050565b6000610ac5610988565b9050610ad18282610a8a565b919050565b600067ffffffffffffffff821115610af157610af0610a5b565b5b610afa8261091c565b9050602081019050919050565b82818337600083830152505050565b6000610b29610b2484610ad6565b610abb565b905082815260208101848484011115610b4557610b44610a56565b5b610b50848285610b07565b509392505050565b600082601f830112610b6d57610b6c610a51565b5b8135610b7d848260208601610b16565b91505092915050565b60008060408385031215610b9d57610b9c610992565b5b6000610bab858286016109e5565b925050602083013567ffffffffffffffff811115610bcc57610bcb610997565b5b610bd885828601610b58565b9150509250929050565b60008115159050919050565b610bf781610be2565b82525050565b6000606082019050610c126000830186610a27565b8181036020830152610c24818561092d565b9050610c336040830184610bee565b949350505050565b7f4e487b7100000000000000000000000000000000000000000000000000000000600052602260045260246000fd5b60006002820490506001821680610c8257607f821691505b60208210811415610c9657610c95610c3b565b5b50919050565b7f4d656d62657220416c6572616479204578697374730000000000000000000000600082015250565b6000610cd26015836108d8565b9150610cdd82610c9c565b602082019050919050565b60006020820190508181036000830152610d0181610cc5565b9050919050565b6000604082019050610d1d6000830185610a27565b8181036020830152610d2f818461092d565b90509392505050565b7f4f776e61626c653a206e6577206f776e657220697320746865207a65726f206160008201527f6464726573730000000000000000000000000000000000000000000000000000602082015250565b6000610d946026836108d8565b9150610d9f82610d38565b604082019050919050565b60006020820190508181036000830152610dc381610d87565b9050919050565b7f4f776e61626c653a2063616c6c6572206973206e6f7420746865206f776e6572600082015250565b6000610e006020836108d8565b9150610e0b82610dca565b602082019050919050565b60006020820190508181036000830152610e2f81610df3565b905091905056fea26469706673582212207d98270256f1fb9df191e5a1de64bc5c5302ff1c998fe26fc13b7c75bc59988264736f6c634300080a0033",
  "devdoc": {
    "kind": "dev",
    "methods": {
      "owner()": {
        "details": "Returns the address of the current owner."
      },
      "renounceOwnership()": {
        "details": "Leaves the contract without owner. It will not be possible to call `onlyOwner` functions anymore. Can only be called by the current owner. NOTE: Renouncing ownership will leave the contract without an owner, thereby removing any functionality that is only available to the owner."
      },
      "transferOwnership(address)": {
        "details": "Transfers ownership of the contract to a new account (`newOwner`). Can only be called by the current owner."
      }
    },
    "version": 1
  },
  "userdoc": {
    "kind": "user",
    "methods": {},
    "version": 1
  },
  "storageLayout": {
    "storage": [
      {
        "astId": 7,
        "contract": "contracts/Project.sol:Project",
        "label": "_owner",
        "offset": 0,
        "slot": "0",
        "type": "t_address"
      },
      {
        "astId": 141,
        "contract": "contracts/Project.sol:Project",
        "label": "name",
        "offset": 0,
        "slot": "1",
        "type": "t_string_storage"
      },
      {
        "astId": 143,
        "contract": "contracts/Project.sol:Project",
        "label": "desc",
        "offset": 0,
        "slot": "2",
        "type": "t_string_storage"
      },
      {
        "astId": 155,
        "contract": "contracts/Project.sol:Project",
        "label": "Members",
        "offset": 0,
        "slot": "3",
        "type": "t_mapping(t_address,t_struct(Member)150_storage)"
      }
    ],
    "types": {
      "t_address": {
        "encoding": "inplace",
        "label": "address",
        "numberOfBytes": "20"
      },
      "t_bool": {
        "encoding": "inplace",
        "label": "bool",
        "numberOfBytes": "1"
      },
      "t_mapping(t_address,t_struct(Member)150_storage)": {
        "encoding": "mapping",
        "key": "t_address",
        "label": "mapping(address => struct Project.Member)",
        "numberOfBytes": "32",
        "value": "t_struct(Member)150_storage"
      },
      "t_string_storage": {
        "encoding": "bytes",
        "label": "string",
        "numberOfBytes": "32"
      },
      "t_struct(Member)150_storage": {
        "encoding": "inplace",
        "label": "struct Project.Member",
        "members": [
          {
            "astId": 145,
            "contract": "contracts/Project.sol:Project",
            "label": "member",
            "offset": 0,
            "slot": "0",
            "type": "t_address"
          },
          {
            "astId": 147,
            "contract": "contracts/Project.sol:Project",
            "label": "role",
            "offset": 0,
            "slot": "1",
            "type": "t_string_storage"
          },
          {
            "astId": 149,
            "contract": "contracts/Project.sol:Project",
            "label": "access",
            "offset": 0,
            "slot": "2",
            "type": "t_bool"
          }
        ],
        "numberOfBytes": "96"
      }
    }
  }
}