{
  "address": "0xA81BA32482465DEc6B4c79525F1fD8A5544B3610",
  "abi": [
    {
      "inputs": [
        {
          "internalType": "address",
          "name": "_owner",
          "type": "address"
        },
        {
          "internalType": "string",
          "name": "_name",
          "type": "string"
        },
        {
          "internalType": "string",
          "name": "_desc",
          "type": "string"
        },
        {
          "internalType": "string[]",
          "name": "_adminsrole",
          "type": "string[]"
        }
      ],
      "stateMutability": "nonpayable",
      "type": "constructor"
    },
    {
      "anonymous": false,
      "inputs": [
        {
          "indexed": false,
          "internalType": "address",
          "name": "member",
          "type": "address"
        }
      ],
      "name": "MemberRevoked",
      "type": "event"
    },
    {
      "anonymous": false,
      "inputs": [
        {
          "indexed": false,
          "internalType": "address",
          "name": "newMember",
          "type": "address"
        },
        {
          "indexed": false,
          "internalType": "string[]",
          "name": "role",
          "type": "string[]"
        }
      ],
      "name": "NewMemberAdded",
      "type": "event"
    },
    {
      "anonymous": false,
      "inputs": [
        {
          "indexed": true,
          "internalType": "address",
          "name": "previousOwner",
          "type": "address"
        },
        {
          "indexed": true,
          "internalType": "address",
          "name": "newOwner",
          "type": "address"
        }
      ],
      "name": "OwnershipTransferred",
      "type": "event"
    },
    {
      "inputs": [
        {
          "internalType": "address",
          "name": "",
          "type": "address"
        }
      ],
      "name": "Members",
      "outputs": [
        {
          "internalType": "address",
          "name": "member",
          "type": "address"
        },
        {
          "internalType": "bool",
          "name": "access",
          "type": "bool"
        }
      ],
      "stateMutability": "view",
      "type": "function"
    },
    {
      "inputs": [
        {
          "internalType": "address",
          "name": "_dev",
          "type": "address"
        },
        {
          "internalType": "string[]",
          "name": "_role",
          "type": "string[]"
        }
      ],
      "name": "addMember",
      "outputs": [],
      "stateMutability": "nonpayable",
      "type": "function"
    },
    {
      "inputs": [
        {
          "internalType": "address",
          "name": "_dev",
          "type": "address"
        },
        {
          "internalType": "string[]",
          "name": "_newrole",
          "type": "string[]"
        }
      ],
      "name": "changeRole",
      "outputs": [],
      "stateMutability": "nonpayable",
      "type": "function"
    },
    {
      "inputs": [],
      "name": "desc",
      "outputs": [
        {
          "internalType": "string",
          "name": "",
          "type": "string"
        }
      ],
      "stateMutability": "view",
      "type": "function"
    },
    {
      "inputs": [
        {
          "internalType": "address",
          "name": "_dev",
          "type": "address"
        }
      ],
      "name": "getRoles",
      "outputs": [
        {
          "internalType": "string[]",
          "name": "roles",
          "type": "string[]"
        }
      ],
      "stateMutability": "view",
      "type": "function"
    },
    {
      "inputs": [
        {
          "internalType": "address",
          "name": "_member",
          "type": "address"
        }
      ],
      "name": "getTweets",
      "outputs": [
        {
          "internalType": "string[]",
          "name": "",
          "type": "string[]"
        }
      ],
      "stateMutability": "view",
      "type": "function"
    },
    {
      "inputs": [
        {
          "internalType": "uint256",
          "name": "",
          "type": "uint256"
        }
      ],
      "name": "membersAddresses",
      "outputs": [
        {
          "internalType": "address",
          "name": "",
          "type": "address"
        }
      ],
      "stateMutability": "view",
      "type": "function"
    },
    {
      "inputs": [],
      "name": "name",
      "outputs": [
        {
          "internalType": "string",
          "name": "",
          "type": "string"
        }
      ],
      "stateMutability": "view",
      "type": "function"
    },
    {
      "inputs": [],
      "name": "numberOfMembers",
      "outputs": [
        {
          "internalType": "uint256",
          "name": "",
          "type": "uint256"
        }
      ],
      "stateMutability": "view",
      "type": "function"
    },
    {
      "inputs": [],
      "name": "owner",
      "outputs": [
        {
          "internalType": "address",
          "name": "",
          "type": "address"
        }
      ],
      "stateMutability": "view",
      "type": "function"
    },
    {
      "inputs": [],
      "name": "renounceOwnership",
      "outputs": [],
      "stateMutability": "nonpayable",
      "type": "function"
    },
    {
      "inputs": [
        {
          "internalType": "address",
          "name": "_dev",
          "type": "address"
        }
      ],
      "name": "revokeMember",
      "outputs": [],
      "stateMutability": "nonpayable",
      "type": "function"
    },
    {
      "inputs": [
        {
          "internalType": "address",
          "name": "newOwner",
          "type": "address"
        }
      ],
      "name": "transferOwnership",
      "outputs": [],
      "stateMutability": "nonpayable",
      "type": "function"
    },
    {
      "inputs": [
        {
          "internalType": "string",
          "name": "_tweet",
          "type": "string"
        }
      ],
      "name": "tweetOnProject",
      "outputs": [],
      "stateMutability": "nonpayable",
      "type": "function"
    },
    {
      "inputs": [
        {
          "internalType": "address",
          "name": "",
          "type": "address"
        },
        {
          "internalType": "uint256",
          "name": "",
          "type": "uint256"
        }
      ],
      "name": "tweets",
      "outputs": [
        {
          "internalType": "string",
          "name": "",
          "type": "string"
        }
      ],
      "stateMutability": "view",
      "type": "function"
    },
    {
      "inputs": [
        {
          "internalType": "string",
          "name": "_desc",
          "type": "string"
        }
      ],
      "name": "updateProjectDescription",
      "outputs": [],
      "stateMutability": "nonpayable",
      "type": "function"
    },
    {
      "inputs": [
        {
          "internalType": "string",
          "name": "_name",
          "type": "string"
        }
      ],
      "name": "updateProjectName",
      "outputs": [],
      "stateMutability": "nonpayable",
      "type": "function"
    }
  ],
  "transactionHash": "0x6c0d1739d1251b5fc13542065c09ab11009686c85866577fec39d3f9dbd7d6fa",
  "args": [
    "0x8626f6940E2eb28930eFb4CeF49B2d1F2C9C1199",
    "Test Project",
    "Test ProjectDesc",
    [
      "member"
    ]
  ],
  "numDeployments": 2,
  "solcInputHash": "b201dab1f08829c19b65a36fe1510480",
  "bytecode": "0x60806040523480156200001157600080fd5b506040516200286438038062002864833981810160405281019062000037919062000901565b620000576200004b6200026160201b60201c565b6200026960201b60201c565b62000068846200032d60201b60201c565b600060018190555060405180606001604052808573ffffffffffffffffffffffffffffffffffffffff16815260200182815260200160011515815250600560008673ffffffffffffffffffffffffffffffffffffffff1673ffffffffffffffffffffffffffffffffffffffff16815260200190815260200160002060008201518160000160006101000a81548173ffffffffffffffffffffffffffffffffffffffff021916908373ffffffffffffffffffffffffffffffffffffffff1602179055506020820151816001019080519060200190620001489291906200047e565b5060408201518160020160006101000a81548160ff021916908315150217905550905050600180600082825462000180919062000a09565b925050819055506004849080600181540180825580915050600190039060005260206000200160009091909190916101000a81548173ffffffffffffffffffffffffffffffffffffffff021916908373ffffffffffffffffffffffffffffffffffffffff1602179055507fd2467e481f7d87a173b743229338eb0ddb0754e69a7420e9e58c4fe254c7ab9b84826040516200021d92919062000ba4565b60405180910390a182600290805190602001906200023d929190620004e5565b50816003908051906020019062000256929190620004e5565b505050505062000d58565b600033905090565b60008060009054906101000a900473ffffffffffffffffffffffffffffffffffffffff169050816000806101000a81548173ffffffffffffffffffffffffffffffffffffffff021916908373ffffffffffffffffffffffffffffffffffffffff1602179055508173ffffffffffffffffffffffffffffffffffffffff168173ffffffffffffffffffffffffffffffffffffffff167f8be0079c531659141344cd1fd0a4f28419497f9722a3daafe3b4186f6b6457e060405160405180910390a35050565b6200033d620003c460201b60201c565b600073ffffffffffffffffffffffffffffffffffffffff168173ffffffffffffffffffffffffffffffffffffffff161415620003b0576040517f08c379a0000000000000000000000000000000000000000000000000000000008152600401620003a79062000c5f565b60405180910390fd5b620003c1816200026960201b60201c565b50565b620003d46200026160201b60201c565b73ffffffffffffffffffffffffffffffffffffffff16620003fa6200045560201b60201c565b73ffffffffffffffffffffffffffffffffffffffff161462000453576040517f08c379a00000000000000000000000000000000000000000000000000000000081526004016200044a9062000cd1565b60405180910390fd5b565b60008060009054906101000a900473ffffffffffffffffffffffffffffffffffffffff16905090565b828054828255906000526020600020908101928215620004d2579160200282015b82811115620004d1578251829080519060200190620004c0929190620004e5565b50916020019190600101906200049f565b5b509050620004e1919062000576565b5090565b828054620004f39062000d22565b90600052602060002090601f01602090048101928262000517576000855562000563565b82601f106200053257805160ff191683800117855562000563565b8280016001018555821562000563579182015b828111156200056257825182559160200191906001019062000545565b5b5090506200057291906200059e565b5090565b5b808211156200059a5760008181620005909190620005bd565b5060010162000577565b5090565b5b80821115620005b95760008160009055506001016200059f565b5090565b508054620005cb9062000d22565b6000825580601f10620005df575062000600565b601f016020900490600052602060002090810190620005ff91906200059e565b5b50565b6000604051905090565b600080fd5b600080fd5b600073ffffffffffffffffffffffffffffffffffffffff82169050919050565b6000620006448262000617565b9050919050565b620006568162000637565b81146200066257600080fd5b50565b60008151905062000676816200064b565b92915050565b600080fd5b600080fd5b6000601f19601f8301169050919050565b7f4e487b7100000000000000000000000000000000000000000000000000000000600052604160045260246000fd5b620006d18262000686565b810181811067ffffffffffffffff82111715620006f357620006f262000697565b5b80604052505050565b60006200070862000603565b9050620007168282620006c6565b919050565b600067ffffffffffffffff82111562000739576200073862000697565b5b620007448262000686565b9050602081019050919050565b60005b838110156200077157808201518184015260208101905062000754565b8381111562000781576000848401525b50505050565b60006200079e62000798846200071b565b620006fc565b905082815260208101848484011115620007bd57620007bc62000681565b5b620007ca84828562000751565b509392505050565b600082601f830112620007ea57620007e96200067c565b5b8151620007fc84826020860162000787565b91505092915050565b600067ffffffffffffffff82111562000823576200082262000697565b5b602082029050602081019050919050565b600080fd5b6000620008506200084a8462000805565b620006fc565b9050808382526020820190506020840283018581111562000876576200087562000834565b5b835b81811015620008c457805167ffffffffffffffff8111156200089f576200089e6200067c565b5b808601620008ae8982620007d2565b8552602085019450505060208101905062000878565b5050509392505050565b600082601f830112620008e657620008e56200067c565b5b8151620008f884826020860162000839565b91505092915050565b600080600080608085870312156200091e576200091d6200060d565b5b60006200092e8782880162000665565b945050602085015167ffffffffffffffff81111562000952576200095162000612565b5b6200096087828801620007d2565b935050604085015167ffffffffffffffff81111562000984576200098362000612565b5b6200099287828801620007d2565b925050606085015167ffffffffffffffff811115620009b657620009b562000612565b5b620009c487828801620008ce565b91505092959194509250565b6000819050919050565b7f4e487b7100000000000000000000000000000000000000000000000000000000600052601160045260246000fd5b600062000a1682620009d0565b915062000a2383620009d0565b9250827fffffffffffffffffffffffffffffffffffffffffffffffffffffffffffffffff0382111562000a5b5762000a5a620009da565b5b828201905092915050565b62000a718162000637565b82525050565b600081519050919050565b600082825260208201905092915050565b6000819050602082019050919050565b600081519050919050565b600082825260208201905092915050565b600062000acc8262000aa3565b62000ad8818562000aae565b935062000aea81856020860162000751565b62000af58162000686565b840191505092915050565b600062000b0e838362000abf565b905092915050565b6000602082019050919050565b600062000b308262000a77565b62000b3c818562000a82565b93508360208202850162000b508562000a93565b8060005b8581101562000b92578484038952815162000b70858262000b00565b945062000b7d8362000b16565b925060208a0199505060018101905062000b54565b50829750879550505050505092915050565b600060408201905062000bbb600083018562000a66565b818103602083015262000bcf818462000b23565b90509392505050565b600082825260208201905092915050565b7f4f776e61626c653a206e6577206f776e657220697320746865207a65726f206160008201527f6464726573730000000000000000000000000000000000000000000000000000602082015250565b600062000c4760268362000bd8565b915062000c548262000be9565b604082019050919050565b6000602082019050818103600083015262000c7a8162000c38565b9050919050565b7f4f776e61626c653a2063616c6c6572206973206e6f7420746865206f776e6572600082015250565b600062000cb960208362000bd8565b915062000cc68262000c81565b602082019050919050565b6000602082019050818103600083015262000cec8162000caa565b9050919050565b7f4e487b7100000000000000000000000000000000000000000000000000000000600052602260045260246000fd5b6000600282049050600182168062000d3b57607f821691505b6020821081141562000d525762000d5162000cf3565b5b50919050565b611afc8062000d686000396000f3fe608060405234801561001057600080fd5b506004361061010b5760003560e01c80638adf23b9116100a2578063c6da612811610071578063c6da612814610292578063ce6ccfaf146102ae578063e0a172a8146102de578063f2fde38b146102fa578063fd0f0166146103165761010b565b80638adf23b91461020a5780638da5cb5b146102265780639e92b09314610244578063a30e3fa9146102745761010b565b806355f150f1116100de57806355f150f1146101965780635ee5a3c6146101b45780636423d525146101e4578063715018a6146102005761010b565b806305a1b4a91461011057806306fdde031461014057806323a22bcb1461015e5780632e9a288e1461017a575b600080fd5b61012a60048036038101906101259190611193565b610347565b604051610137919061126c565b60405180910390f35b610148610400565b604051610155919061126c565b60405180910390f35b610178600480360381019061017391906113c3565b61048e565b005b610194600480360381019061018f91906114f2565b6104b0565b005b61019e610513565b6040516101ab919061126c565b60405180910390f35b6101ce60048036038101906101c9919061154e565b6105a1565b6040516101db919061158a565b60405180910390f35b6101fe60048036038101906101f991906114f2565b6105e0565b005b61020861086c565b005b610224600480360381019061021f91906115a5565b610880565b005b61022e610993565b60405161023b919061158a565b60405180910390f35b61025e600480360381019061025991906115a5565b6109bc565b60405161026b91906116de565b60405180910390f35b61027c610ad4565b604051610289919061170f565b60405180910390f35b6102ac60048036038101906102a791906113c3565b610ada565b005b6102c860048036038101906102c391906115a5565b610afc565b6040516102d591906116de565b60405180910390f35b6102f860048036038101906102f391906113c3565b610c17565b005b610314600480360381019061030f91906115a5565b610d65565b005b610330600480360381019061032b91906115a5565b610de9565b60405161033e929190611745565b60405180910390f35b6006602052816000526040600020818154811061036357600080fd5b9060005260206000200160009150915050805461037f9061179d565b80601f01602080910402602001604051908101604052809291908181526020018280546103ab9061179d565b80156103f85780601f106103cd576101008083540402835291602001916103f8565b820191906000526020600020905b8154815290600101906020018083116103db57829003601f168201915b505050505081565b6002805461040d9061179d565b80601f01602080910402602001604051908101604052809291908181526020018280546104399061179d565b80156104865780601f1061045b57610100808354040283529160200191610486565b820191906000526020600020905b81548152906001019060200180831161046957829003601f168201915b505050505081565b610496610e3a565b80600390805190602001906104ac929190610f84565b5050565b6104b8610e3a565b80600560008473ffffffffffffffffffffffffffffffffffffffff1673ffffffffffffffffffffffffffffffffffffffff168152602001908152602001600020600101908051906020019061050e92919061100a565b505050565b600380546105209061179d565b80601f016020809104026020016040519081016040528092919081815260200182805461054c9061179d565b80156105995780601f1061056e57610100808354040283529160200191610599565b820191906000526020600020905b81548152906001019060200180831161057c57829003601f168201915b505050505081565b600481815481106105b157600080fd5b906000526020600020016000915054906101000a900473ffffffffffffffffffffffffffffffffffffffff1681565b6105e8610e3a565b600073ffffffffffffffffffffffffffffffffffffffff16600560008473ffffffffffffffffffffffffffffffffffffffff1673ffffffffffffffffffffffffffffffffffffffff16815260200190815260200160002060000160009054906101000a900473ffffffffffffffffffffffffffffffffffffffff1673ffffffffffffffffffffffffffffffffffffffff16146106b9576040517f08c379a00000000000000000000000000000000000000000000000000000000081526004016106b09061181b565b60405180910390fd5b60405180606001604052808373ffffffffffffffffffffffffffffffffffffffff16815260200182815260200160011515815250600560008473ffffffffffffffffffffffffffffffffffffffff1673ffffffffffffffffffffffffffffffffffffffff16815260200190815260200160002060008201518160000160006101000a81548173ffffffffffffffffffffffffffffffffffffffff021916908373ffffffffffffffffffffffffffffffffffffffff160217905550602082015181600101908051906020019061078f92919061100a565b5060408201518160020160006101000a81548160ff02191690831515021790555090505060018060008282546107c5919061186a565b925050819055506004829080600181540180825580915050600190039060005260206000200160009091909190916101000a81548173ffffffffffffffffffffffffffffffffffffffff021916908373ffffffffffffffffffffffffffffffffffffffff1602179055507fd2467e481f7d87a173b743229338eb0ddb0754e69a7420e9e58c4fe254c7ab9b82826040516108609291906118c0565b60405180910390a15050565b610874610e3a565b61087e6000610eb8565b565b610888610e3a565b610890610993565b73ffffffffffffffffffffffffffffffffffffffff168173ffffffffffffffffffffffffffffffffffffffff1614156108fe576040517f08c379a00000000000000000000000000000000000000000000000000000000081526004016108f59061193c565b60405180910390fd5b6000600560008373ffffffffffffffffffffffffffffffffffffffff1673ffffffffffffffffffffffffffffffffffffffff16815260200190815260200160002060020160006101000a81548160ff0219169083151502179055507f745cd29407db644ed93e3ceb61cbcab96d1dfb496989ac5d5bf514fc5a9fab9c81604051610988919061158a565b60405180910390a150565b60008060009054906101000a900473ffffffffffffffffffffffffffffffffffffffff16905090565b6060600660008373ffffffffffffffffffffffffffffffffffffffff1673ffffffffffffffffffffffffffffffffffffffff168152602001908152602001600020805480602002602001604051908101604052809291908181526020016000905b82821015610ac9578382906000526020600020018054610a3c9061179d565b80601f0160208091040260200160405190810160405280929190818152602001828054610a689061179d565b8015610ab55780601f10610a8a57610100808354040283529160200191610ab5565b820191906000526020600020905b815481529060010190602001808311610a9857829003601f168201915b505050505081526020019060010190610a1d565b505050509050919050565b60015481565b610ae2610e3a565b8060029080519060200190610af8929190610f84565b5050565b6060600560008373ffffffffffffffffffffffffffffffffffffffff1673ffffffffffffffffffffffffffffffffffffffff168152602001908152602001600020600101805480602002602001604051908101604052809291908181526020016000905b82821015610c0c578382906000526020600020018054610b7f9061179d565b80601f0160208091040260200160405190810160405280929190818152602001828054610bab9061179d565b8015610bf85780601f10610bcd57610100808354040283529160200191610bf8565b820191906000526020600020905b815481529060010190602001808311610bdb57829003601f168201915b505050505081526020019060010190610b60565b505050509050919050565b600073ffffffffffffffffffffffffffffffffffffffff16600560003373ffffffffffffffffffffffffffffffffffffffff1673ffffffffffffffffffffffffffffffffffffffff16815260200190815260200160002060000160009054906101000a900473ffffffffffffffffffffffffffffffffffffffff1673ffffffffffffffffffffffffffffffffffffffff161415610ce9576040517f08c379a0000000000000000000000000000000000000000000000000000000008152600401610ce0906119a8565b60405180910390fd5b600660003373ffffffffffffffffffffffffffffffffffffffff1673ffffffffffffffffffffffffffffffffffffffff16815260200190815260200160002081908060018154018082558091505060019003906000526020600020016000909190919091509080519060200190610d61929190610f84565b5050565b610d6d610e3a565b600073ffffffffffffffffffffffffffffffffffffffff168173ffffffffffffffffffffffffffffffffffffffff161415610ddd576040517f08c379a0000000000000000000000000000000000000000000000000000000008152600401610dd490611a3a565b60405180910390fd5b610de681610eb8565b50565b60056020528060005260406000206000915090508060000160009054906101000a900473ffffffffffffffffffffffffffffffffffffffff16908060020160009054906101000a900460ff16905082565b610e42610f7c565b73ffffffffffffffffffffffffffffffffffffffff16610e60610993565b73ffffffffffffffffffffffffffffffffffffffff1614610eb6576040517f08c379a0000000000000000000000000000000000000000000000000000000008152600401610ead90611aa6565b60405180910390fd5b565b60008060009054906101000a900473ffffffffffffffffffffffffffffffffffffffff169050816000806101000a81548173ffffffffffffffffffffffffffffffffffffffff021916908373ffffffffffffffffffffffffffffffffffffffff1602179055508173ffffffffffffffffffffffffffffffffffffffff168173ffffffffffffffffffffffffffffffffffffffff167f8be0079c531659141344cd1fd0a4f28419497f9722a3daafe3b4186f6b6457e060405160405180910390a35050565b600033905090565b828054610f909061179d565b90600052602060002090601f016020900481019282610fb25760008555610ff9565b82601f10610fcb57805160ff1916838001178555610ff9565b82800160010185558215610ff9579182015b82811115610ff8578251825591602001919060010190610fdd565b5b509050611006919061106a565b5090565b828054828255906000526020600020908101928215611059579160200282015b82811115611058578251829080519060200190611048929190610f84565b509160200191906001019061102a565b5b5090506110669190611087565b5090565b5b8082111561108357600081600090555060010161106b565b5090565b5b808211156110a7576000818161109e91906110ab565b50600101611088565b5090565b5080546110b79061179d565b6000825580601f106110c957506110e8565b601f0160209004906000526020600020908101906110e7919061106a565b5b50565b6000604051905090565b600080fd5b600080fd5b600073ffffffffffffffffffffffffffffffffffffffff82169050919050565b600061112a826110ff565b9050919050565b61113a8161111f565b811461114557600080fd5b50565b60008135905061115781611131565b92915050565b6000819050919050565b6111708161115d565b811461117b57600080fd5b50565b60008135905061118d81611167565b92915050565b600080604083850312156111aa576111a96110f5565b5b60006111b885828601611148565b92505060206111c98582860161117e565b9150509250929050565b600081519050919050565b600082825260208201905092915050565b60005b8381101561120d5780820151818401526020810190506111f2565b8381111561121c576000848401525b50505050565b6000601f19601f8301169050919050565b600061123e826111d3565b61124881856111de565b93506112588185602086016111ef565b61126181611222565b840191505092915050565b600060208201905081810360008301526112868184611233565b905092915050565b600080fd5b600080fd5b7f4e487b7100000000000000000000000000000000000000000000000000000000600052604160045260246000fd5b6112d082611222565b810181811067ffffffffffffffff821117156112ef576112ee611298565b5b80604052505050565b60006113026110eb565b905061130e82826112c7565b919050565b600067ffffffffffffffff82111561132e5761132d611298565b5b61133782611222565b9050602081019050919050565b82818337600083830152505050565b600061136661136184611313565b6112f8565b90508281526020810184848401111561138257611381611293565b5b61138d848285611344565b509392505050565b600082601f8301126113aa576113a961128e565b5b81356113ba848260208601611353565b91505092915050565b6000602082840312156113d9576113d86110f5565b5b600082013567ffffffffffffffff8111156113f7576113f66110fa565b5b61140384828501611395565b91505092915050565b600067ffffffffffffffff82111561142757611426611298565b5b602082029050602081019050919050565b600080fd5b600061145061144b8461140c565b6112f8565b9050808382526020820190506020840283018581111561147357611472611438565b5b835b818110156114ba57803567ffffffffffffffff8111156114985761149761128e565b5b8086016114a58982611395565b85526020850194505050602081019050611475565b5050509392505050565b600082601f8301126114d9576114d861128e565b5b81356114e984826020860161143d565b91505092915050565b60008060408385031215611509576115086110f5565b5b600061151785828601611148565b925050602083013567ffffffffffffffff811115611538576115376110fa565b5b611544858286016114c4565b9150509250929050565b600060208284031215611564576115636110f5565b5b60006115728482850161117e565b91505092915050565b6115848161111f565b82525050565b600060208201905061159f600083018461157b565b92915050565b6000602082840312156115bb576115ba6110f5565b5b60006115c984828501611148565b91505092915050565b600081519050919050565b600082825260208201905092915050565b6000819050602082019050919050565b600082825260208201905092915050565b600061161a826111d3565b61162481856115fe565b93506116348185602086016111ef565b61163d81611222565b840191505092915050565b6000611654838361160f565b905092915050565b6000602082019050919050565b6000611674826115d2565b61167e81856115dd565b935083602082028501611690856115ee565b8060005b858110156116cc57848403895281516116ad8582611648565b94506116b88361165c565b925060208a01995050600181019050611694565b50829750879550505050505092915050565b600060208201905081810360008301526116f88184611669565b905092915050565b6117098161115d565b82525050565b60006020820190506117246000830184611700565b92915050565b60008115159050919050565b61173f8161172a565b82525050565b600060408201905061175a600083018561157b565b6117676020830184611736565b9392505050565b7f4e487b7100000000000000000000000000000000000000000000000000000000600052602260045260246000fd5b600060028204905060018216806117b557607f821691505b602082108114156117c9576117c861176e565b5b50919050565b7f4d656d62657220416c6572616479204578697374730000000000000000000000600082015250565b60006118056015836111de565b9150611810826117cf565b602082019050919050565b60006020820190508181036000830152611834816117f8565b9050919050565b7f4e487b7100000000000000000000000000000000000000000000000000000000600052601160045260246000fd5b60006118758261115d565b91506118808361115d565b9250827fffffffffffffffffffffffffffffffffffffffffffffffffffffffffffffffff038211156118b5576118b461183b565b5b828201905092915050565b60006040820190506118d5600083018561157b565b81810360208301526118e78184611669565b90509392505050565b7f4368616d702063616e74206265207265766f6b65640000000000000000000000600082015250565b60006119266015836111de565b9150611931826118f0565b602082019050919050565b6000602082019050818103600083015261195581611919565b9050919050565b7f546869732061646472657373206973206e6f7420726567697374657265640000600082015250565b6000611992601e836111de565b915061199d8261195c565b602082019050919050565b600060208201905081810360008301526119c181611985565b9050919050565b7f4f776e61626c653a206e6577206f776e657220697320746865207a65726f206160008201527f6464726573730000000000000000000000000000000000000000000000000000602082015250565b6000611a246026836111de565b9150611a2f826119c8565b604082019050919050565b60006020820190508181036000830152611a5381611a17565b9050919050565b7f4f776e61626c653a2063616c6c6572206973206e6f7420746865206f776e6572600082015250565b6000611a906020836111de565b9150611a9b82611a5a565b602082019050919050565b60006020820190508181036000830152611abf81611a83565b905091905056fea2646970667358221220e1aab883cdef2153aafe14cd3558ea998ea9d92c3bbdd8a4f5930896551cdab264736f6c634300080a0033",
  "devdoc": {
    "kind": "dev",
    "methods": {
      "owner()": {
        "details": "Returns the address of the current owner."
      },
      "renounceOwnership()": {
        "details": "Leaves the contract without owner. It will not be possible to call `onlyOwner` functions anymore. Can only be called by the current owner. NOTE: Renouncing ownership will leave the contract without an owner, thereby removing any functionality that is only available to the owner."
      },
      "transferOwnership(address)": {
        "details": "Transfers ownership of the contract to a new account (`newOwner`). Can only be called by the current owner."
      }
    },
    "version": 1
  },
  "userdoc": {
    "kind": "user",
    "methods": {},
    "version": 1
  },
  "storageLayout": {
    "storage": [
      {
        "astId": 7,
        "contract": "contracts/Project.sol:Project",
        "label": "_owner",
        "offset": 0,
        "slot": "0",
        "type": "t_address"
      },
      {
        "astId": 141,
        "contract": "contracts/Project.sol:Project",
        "label": "numberOfMembers",
        "offset": 0,
        "slot": "1",
        "type": "t_uint256"
      },
      {
        "astId": 143,
        "contract": "contracts/Project.sol:Project",
        "label": "name",
        "offset": 0,
        "slot": "2",
        "type": "t_string_storage"
      },
      {
        "astId": 145,
        "contract": "contracts/Project.sol:Project",
        "label": "desc",
        "offset": 0,
        "slot": "3",
        "type": "t_string_storage"
      },
      {
        "astId": 148,
        "contract": "contracts/Project.sol:Project",
        "label": "membersAddresses",
        "offset": 0,
        "slot": "4",
        "type": "t_array(t_address)dyn_storage"
      },
      {
        "astId": 161,
        "contract": "contracts/Project.sol:Project",
        "label": "Members",
        "offset": 0,
        "slot": "5",
        "type": "t_mapping(t_address,t_struct(Member)156_storage)"
      },
      {
        "astId": 166,
        "contract": "contracts/Project.sol:Project",
        "label": "tweets",
        "offset": 0,
        "slot": "6",
        "type": "t_mapping(t_address,t_array(t_string_storage)dyn_storage)"
      }
    ],
    "types": {
      "t_address": {
        "encoding": "inplace",
        "label": "address",
        "numberOfBytes": "20"
      },
      "t_array(t_address)dyn_storage": {
        "base": "t_address",
        "encoding": "dynamic_array",
        "label": "address[]",
        "numberOfBytes": "32"
      },
      "t_array(t_string_storage)dyn_storage": {
        "base": "t_string_storage",
        "encoding": "dynamic_array",
        "label": "string[]",
        "numberOfBytes": "32"
      },
      "t_bool": {
        "encoding": "inplace",
        "label": "bool",
        "numberOfBytes": "1"
      },
      "t_mapping(t_address,t_array(t_string_storage)dyn_storage)": {
        "encoding": "mapping",
        "key": "t_address",
        "label": "mapping(address => string[])",
        "numberOfBytes": "32",
        "value": "t_array(t_string_storage)dyn_storage"
      },
      "t_mapping(t_address,t_struct(Member)156_storage)": {
        "encoding": "mapping",
        "key": "t_address",
        "label": "mapping(address => struct Project.Member)",
        "numberOfBytes": "32",
        "value": "t_struct(Member)156_storage"
      },
      "t_string_storage": {
        "encoding": "bytes",
        "label": "string",
        "numberOfBytes": "32"
      },
      "t_struct(Member)156_storage": {
        "encoding": "inplace",
        "label": "struct Project.Member",
        "members": [
          {
            "astId": 150,
            "contract": "contracts/Project.sol:Project",
            "label": "member",
            "offset": 0,
            "slot": "0",
            "type": "t_address"
          },
          {
            "astId": 153,
            "contract": "contracts/Project.sol:Project",
            "label": "role",
            "offset": 0,
            "slot": "1",
            "type": "t_array(t_string_storage)dyn_storage"
          },
          {
            "astId": 155,
            "contract": "contracts/Project.sol:Project",
            "label": "access",
            "offset": 0,
            "slot": "2",
            "type": "t_bool"
          }
        ],
        "numberOfBytes": "96"
      },
      "t_uint256": {
        "encoding": "inplace",
        "label": "uint256",
        "numberOfBytes": "32"
      }
    }
  }
}