{
  "address": "0x76390EC72D9302a5EBF6797f4461b915182fDa24",
  "abi": [
    {
      "inputs": [
        {
          "internalType": "address",
          "name": "_owner",
          "type": "address"
        },
        {
          "internalType": "string",
          "name": "_name",
          "type": "string"
        },
        {
          "internalType": "string",
          "name": "_desc",
          "type": "string"
        },
        {
          "internalType": "string[]",
          "name": "_adminsrole",
          "type": "string[]"
        }
      ],
      "stateMutability": "nonpayable",
      "type": "constructor"
    },
    {
      "anonymous": false,
      "inputs": [
        {
          "indexed": false,
          "internalType": "address",
          "name": "member",
          "type": "address"
        }
      ],
      "name": "MemberRevoked",
      "type": "event"
    },
    {
      "anonymous": false,
      "inputs": [
        {
          "indexed": false,
          "internalType": "address",
          "name": "newMember",
          "type": "address"
        },
        {
          "indexed": false,
          "internalType": "string[]",
          "name": "role",
          "type": "string[]"
        }
      ],
      "name": "NewMemberAdded",
      "type": "event"
    },
    {
      "anonymous": false,
      "inputs": [
        {
          "indexed": true,
          "internalType": "address",
          "name": "previousOwner",
          "type": "address"
        },
        {
          "indexed": true,
          "internalType": "address",
          "name": "newOwner",
          "type": "address"
        }
      ],
      "name": "OwnershipTransferred",
      "type": "event"
    },
    {
      "inputs": [
        {
          "internalType": "address",
          "name": "",
          "type": "address"
        }
      ],
      "name": "Members",
      "outputs": [
        {
          "internalType": "address",
          "name": "member",
          "type": "address"
        },
        {
          "internalType": "bool",
          "name": "access",
          "type": "bool"
        }
      ],
      "stateMutability": "view",
      "type": "function"
    },
    {
      "inputs": [
        {
          "internalType": "address",
          "name": "_dev",
          "type": "address"
        },
        {
          "internalType": "string[]",
          "name": "_role",
          "type": "string[]"
        }
      ],
      "name": "addMember",
      "outputs": [],
      "stateMutability": "nonpayable",
      "type": "function"
    },
    {
      "inputs": [
        {
          "internalType": "address",
          "name": "_dev",
          "type": "address"
        },
        {
          "internalType": "string[]",
          "name": "_newrole",
          "type": "string[]"
        }
      ],
      "name": "changeRole",
      "outputs": [],
      "stateMutability": "nonpayable",
      "type": "function"
    },
    {
      "inputs": [],
      "name": "desc",
      "outputs": [
        {
          "internalType": "string",
          "name": "",
          "type": "string"
        }
      ],
      "stateMutability": "view",
      "type": "function"
    },
    {
      "inputs": [
        {
          "internalType": "address",
          "name": "_dev",
          "type": "address"
        }
      ],
      "name": "getRoles",
      "outputs": [
        {
          "internalType": "string[]",
          "name": "roles",
          "type": "string[]"
        }
      ],
      "stateMutability": "view",
      "type": "function"
    },
    {
      "inputs": [
        {
          "internalType": "uint256",
          "name": "",
          "type": "uint256"
        }
      ],
      "name": "membersAddresses",
      "outputs": [
        {
          "internalType": "address",
          "name": "",
          "type": "address"
        }
      ],
      "stateMutability": "view",
      "type": "function"
    },
    {
      "inputs": [],
      "name": "name",
      "outputs": [
        {
          "internalType": "string",
          "name": "",
          "type": "string"
        }
      ],
      "stateMutability": "view",
      "type": "function"
    },
    {
      "inputs": [],
      "name": "numberOfMembers",
      "outputs": [
        {
          "internalType": "uint256",
          "name": "",
          "type": "uint256"
        }
      ],
      "stateMutability": "view",
      "type": "function"
    },
    {
      "inputs": [],
      "name": "owner",
      "outputs": [
        {
          "internalType": "address",
          "name": "",
          "type": "address"
        }
      ],
      "stateMutability": "view",
      "type": "function"
    },
    {
      "inputs": [],
      "name": "renounceOwnership",
      "outputs": [],
      "stateMutability": "nonpayable",
      "type": "function"
    },
    {
      "inputs": [
        {
          "internalType": "address",
          "name": "_dev",
          "type": "address"
        }
      ],
      "name": "revokeMember",
      "outputs": [],
      "stateMutability": "nonpayable",
      "type": "function"
    },
    {
      "inputs": [
        {
          "internalType": "address",
          "name": "newOwner",
          "type": "address"
        }
      ],
      "name": "transferOwnership",
      "outputs": [],
      "stateMutability": "nonpayable",
      "type": "function"
    },
    {
      "inputs": [
        {
          "internalType": "string",
          "name": "_desc",
          "type": "string"
        }
      ],
      "name": "updateProjectDescription",
      "outputs": [],
      "stateMutability": "nonpayable",
      "type": "function"
    },
    {
      "inputs": [
        {
          "internalType": "string",
          "name": "_name",
          "type": "string"
        }
      ],
      "name": "updateProjectName",
      "outputs": [],
      "stateMutability": "nonpayable",
      "type": "function"
    }
  ],
  "transactionHash": "0x85038422804e7672507eb0a5e4b9e27f0cbde57b27ad62fc743fa0adb88e8c49",
  "args": [
    "0x8626f6940E2eb28930eFb4CeF49B2d1F2C9C1199",
    "Test Project",
    "Test ProjectDesc",
    [
      "member"
    ]
  ],
  "numDeployments": 1,
  "solcInputHash": "a9d7e73c15ecfd2c99b6a78907ab7e5b",
  "bytecode": "0x60806040523480156200001157600080fd5b50604051620023fc380380620023fc833981810160405281019062000037919062000901565b620000576200004b6200026160201b60201c565b6200026960201b60201c565b62000068846200032d60201b60201c565b600060018190555060405180606001604052808573ffffffffffffffffffffffffffffffffffffffff16815260200182815260200160011515815250600560008673ffffffffffffffffffffffffffffffffffffffff1673ffffffffffffffffffffffffffffffffffffffff16815260200190815260200160002060008201518160000160006101000a81548173ffffffffffffffffffffffffffffffffffffffff021916908373ffffffffffffffffffffffffffffffffffffffff1602179055506020820151816001019080519060200190620001489291906200047e565b5060408201518160020160006101000a81548160ff021916908315150217905550905050600180600082825462000180919062000a09565b925050819055506004849080600181540180825580915050600190039060005260206000200160009091909190916101000a81548173ffffffffffffffffffffffffffffffffffffffff021916908373ffffffffffffffffffffffffffffffffffffffff1602179055507fd2467e481f7d87a173b743229338eb0ddb0754e69a7420e9e58c4fe254c7ab9b84826040516200021d92919062000ba4565b60405180910390a182600290805190602001906200023d929190620004e5565b50816003908051906020019062000256929190620004e5565b505050505062000d58565b600033905090565b60008060009054906101000a900473ffffffffffffffffffffffffffffffffffffffff169050816000806101000a81548173ffffffffffffffffffffffffffffffffffffffff021916908373ffffffffffffffffffffffffffffffffffffffff1602179055508173ffffffffffffffffffffffffffffffffffffffff168173ffffffffffffffffffffffffffffffffffffffff167f8be0079c531659141344cd1fd0a4f28419497f9722a3daafe3b4186f6b6457e060405160405180910390a35050565b6200033d620003c460201b60201c565b600073ffffffffffffffffffffffffffffffffffffffff168173ffffffffffffffffffffffffffffffffffffffff161415620003b0576040517f08c379a0000000000000000000000000000000000000000000000000000000008152600401620003a79062000c5f565b60405180910390fd5b620003c1816200026960201b60201c565b50565b620003d46200026160201b60201c565b73ffffffffffffffffffffffffffffffffffffffff16620003fa6200045560201b60201c565b73ffffffffffffffffffffffffffffffffffffffff161462000453576040517f08c379a00000000000000000000000000000000000000000000000000000000081526004016200044a9062000cd1565b60405180910390fd5b565b60008060009054906101000a900473ffffffffffffffffffffffffffffffffffffffff16905090565b828054828255906000526020600020908101928215620004d2579160200282015b82811115620004d1578251829080519060200190620004c0929190620004e5565b50916020019190600101906200049f565b5b509050620004e1919062000576565b5090565b828054620004f39062000d22565b90600052602060002090601f01602090048101928262000517576000855562000563565b82601f106200053257805160ff191683800117855562000563565b8280016001018555821562000563579182015b828111156200056257825182559160200191906001019062000545565b5b5090506200057291906200059e565b5090565b5b808211156200059a5760008181620005909190620005bd565b5060010162000577565b5090565b5b80821115620005b95760008160009055506001016200059f565b5090565b508054620005cb9062000d22565b6000825580601f10620005df575062000600565b601f016020900490600052602060002090810190620005ff91906200059e565b5b50565b6000604051905090565b600080fd5b600080fd5b600073ffffffffffffffffffffffffffffffffffffffff82169050919050565b6000620006448262000617565b9050919050565b620006568162000637565b81146200066257600080fd5b50565b60008151905062000676816200064b565b92915050565b600080fd5b600080fd5b6000601f19601f8301169050919050565b7f4e487b7100000000000000000000000000000000000000000000000000000000600052604160045260246000fd5b620006d18262000686565b810181811067ffffffffffffffff82111715620006f357620006f262000697565b5b80604052505050565b60006200070862000603565b9050620007168282620006c6565b919050565b600067ffffffffffffffff82111562000739576200073862000697565b5b620007448262000686565b9050602081019050919050565b60005b838110156200077157808201518184015260208101905062000754565b8381111562000781576000848401525b50505050565b60006200079e62000798846200071b565b620006fc565b905082815260208101848484011115620007bd57620007bc62000681565b5b620007ca84828562000751565b509392505050565b600082601f830112620007ea57620007e96200067c565b5b8151620007fc84826020860162000787565b91505092915050565b600067ffffffffffffffff82111562000823576200082262000697565b5b602082029050602081019050919050565b600080fd5b6000620008506200084a8462000805565b620006fc565b9050808382526020820190506020840283018581111562000876576200087562000834565b5b835b81811015620008c457805167ffffffffffffffff8111156200089f576200089e6200067c565b5b808601620008ae8982620007d2565b8552602085019450505060208101905062000878565b5050509392505050565b600082601f830112620008e657620008e56200067c565b5b8151620008f884826020860162000839565b91505092915050565b600080600080608085870312156200091e576200091d6200060d565b5b60006200092e8782880162000665565b945050602085015167ffffffffffffffff81111562000952576200095162000612565b5b6200096087828801620007d2565b935050604085015167ffffffffffffffff81111562000984576200098362000612565b5b6200099287828801620007d2565b925050606085015167ffffffffffffffff811115620009b657620009b562000612565b5b620009c487828801620008ce565b91505092959194509250565b6000819050919050565b7f4e487b7100000000000000000000000000000000000000000000000000000000600052601160045260246000fd5b600062000a1682620009d0565b915062000a2383620009d0565b9250827fffffffffffffffffffffffffffffffffffffffffffffffffffffffffffffffff0382111562000a5b5762000a5a620009da565b5b828201905092915050565b62000a718162000637565b82525050565b600081519050919050565b600082825260208201905092915050565b6000819050602082019050919050565b600081519050919050565b600082825260208201905092915050565b600062000acc8262000aa3565b62000ad8818562000aae565b935062000aea81856020860162000751565b62000af58162000686565b840191505092915050565b600062000b0e838362000abf565b905092915050565b6000602082019050919050565b600062000b308262000a77565b62000b3c818562000a82565b93508360208202850162000b508562000a93565b8060005b8581101562000b92578484038952815162000b70858262000b00565b945062000b7d8362000b16565b925060208a0199505060018101905062000b54565b50829750879550505050505092915050565b600060408201905062000bbb600083018562000a66565b818103602083015262000bcf818462000b23565b90509392505050565b600082825260208201905092915050565b7f4f776e61626c653a206e6577206f776e657220697320746865207a65726f206160008201527f6464726573730000000000000000000000000000000000000000000000000000602082015250565b600062000c4760268362000bd8565b915062000c548262000be9565b604082019050919050565b6000602082019050818103600083015262000c7a8162000c38565b9050919050565b7f4f776e61626c653a2063616c6c6572206973206e6f7420746865206f776e6572600082015250565b600062000cb960208362000bd8565b915062000cc68262000c81565b602082019050919050565b6000602082019050818103600083015262000cec8162000caa565b9050919050565b7f4e487b7100000000000000000000000000000000000000000000000000000000600052602260045260246000fd5b6000600282049050600182168062000d3b57607f821691505b6020821081141562000d525762000d5162000cf3565b5b50919050565b6116948062000d686000396000f3fe608060405234801561001057600080fd5b50600436106100ea5760003560e01c80638adf23b91161008c578063c6da612811610066578063c6da612814610211578063ce6ccfaf1461022d578063f2fde38b1461025d578063fd0f016614610279576100ea565b80638adf23b9146101b95780638da5cb5b146101d5578063a30e3fa9146101f3576100ea565b806355f150f1116100c857806355f150f1146101455780635ee5a3c6146101635780636423d52514610193578063715018a6146101af576100ea565b806306fdde03146100ef57806323a22bcb1461010d5780632e9a288e14610129575b600080fd5b6100f76102aa565b6040516101049190610dc8565b60405180910390f35b61012760048036038101906101229190610f33565b610338565b005b610143600480360381019061013e91906110c0565b61035a565b005b61014d6103bd565b60405161015a9190610dc8565b60405180910390f35b61017d60048036038101906101789190611152565b61044b565b60405161018a919061118e565b60405180910390f35b6101ad60048036038101906101a891906110c0565b61048a565b005b6101b7610716565b005b6101d360048036038101906101ce91906111a9565b61072a565b005b6101dd61083d565b6040516101ea919061118e565b60405180910390f35b6101fb610866565b60405161020891906111e5565b60405180910390f35b61022b60048036038101906102269190610f33565b61086c565b005b610247600480360381019061024291906111a9565b61088e565b604051610254919061130c565b60405180910390f35b610277600480360381019061027291906111a9565b6109a9565b005b610293600480360381019061028e91906111a9565b610a2d565b6040516102a1929190611349565b60405180910390f35b600280546102b7906113a1565b80601f01602080910402602001604051908101604052809291908181526020018280546102e3906113a1565b80156103305780601f1061030557610100808354040283529160200191610330565b820191906000526020600020905b81548152906001019060200180831161031357829003601f168201915b505050505081565b610340610a7e565b8060039080519060200190610356929190610bc8565b5050565b610362610a7e565b80600560008473ffffffffffffffffffffffffffffffffffffffff1673ffffffffffffffffffffffffffffffffffffffff16815260200190815260200160002060010190805190602001906103b8929190610c4e565b505050565b600380546103ca906113a1565b80601f01602080910402602001604051908101604052809291908181526020018280546103f6906113a1565b80156104435780601f1061041857610100808354040283529160200191610443565b820191906000526020600020905b81548152906001019060200180831161042657829003601f168201915b505050505081565b6004818154811061045b57600080fd5b906000526020600020016000915054906101000a900473ffffffffffffffffffffffffffffffffffffffff1681565b610492610a7e565b600073ffffffffffffffffffffffffffffffffffffffff16600560008473ffffffffffffffffffffffffffffffffffffffff1673ffffffffffffffffffffffffffffffffffffffff16815260200190815260200160002060000160009054906101000a900473ffffffffffffffffffffffffffffffffffffffff1673ffffffffffffffffffffffffffffffffffffffff1614610563576040517f08c379a000000000000000000000000000000000000000000000000000000000815260040161055a9061141f565b60405180910390fd5b60405180606001604052808373ffffffffffffffffffffffffffffffffffffffff16815260200182815260200160011515815250600560008473ffffffffffffffffffffffffffffffffffffffff1673ffffffffffffffffffffffffffffffffffffffff16815260200190815260200160002060008201518160000160006101000a81548173ffffffffffffffffffffffffffffffffffffffff021916908373ffffffffffffffffffffffffffffffffffffffff1602179055506020820151816001019080519060200190610639929190610c4e565b5060408201518160020160006101000a81548160ff021916908315150217905550905050600180600082825461066f919061146e565b925050819055506004829080600181540180825580915050600190039060005260206000200160009091909190916101000a81548173ffffffffffffffffffffffffffffffffffffffff021916908373ffffffffffffffffffffffffffffffffffffffff1602179055507fd2467e481f7d87a173b743229338eb0ddb0754e69a7420e9e58c4fe254c7ab9b828260405161070a9291906114c4565b60405180910390a15050565b61071e610a7e565b6107286000610afc565b565b610732610a7e565b61073a61083d565b73ffffffffffffffffffffffffffffffffffffffff168173ffffffffffffffffffffffffffffffffffffffff1614156107a8576040517f08c379a000000000000000000000000000000000000000000000000000000000815260040161079f90611540565b60405180910390fd5b6000600560008373ffffffffffffffffffffffffffffffffffffffff1673ffffffffffffffffffffffffffffffffffffffff16815260200190815260200160002060020160006101000a81548160ff0219169083151502179055507f745cd29407db644ed93e3ceb61cbcab96d1dfb496989ac5d5bf514fc5a9fab9c81604051610832919061118e565b60405180910390a150565b60008060009054906101000a900473ffffffffffffffffffffffffffffffffffffffff16905090565b60015481565b610874610a7e565b806002908051906020019061088a929190610bc8565b5050565b6060600560008373ffffffffffffffffffffffffffffffffffffffff1673ffffffffffffffffffffffffffffffffffffffff168152602001908152602001600020600101805480602002602001604051908101604052809291908181526020016000905b8282101561099e578382906000526020600020018054610911906113a1565b80601f016020809104026020016040519081016040528092919081815260200182805461093d906113a1565b801561098a5780601f1061095f5761010080835404028352916020019161098a565b820191906000526020600020905b81548152906001019060200180831161096d57829003601f168201915b5050505050815260200190600101906108f2565b505050509050919050565b6109b1610a7e565b600073ffffffffffffffffffffffffffffffffffffffff168173ffffffffffffffffffffffffffffffffffffffff161415610a21576040517f08c379a0000000000000000000000000000000000000000000000000000000008152600401610a18906115d2565b60405180910390fd5b610a2a81610afc565b50565b60056020528060005260406000206000915090508060000160009054906101000a900473ffffffffffffffffffffffffffffffffffffffff16908060020160009054906101000a900460ff16905082565b610a86610bc0565b73ffffffffffffffffffffffffffffffffffffffff16610aa461083d565b73ffffffffffffffffffffffffffffffffffffffff1614610afa576040517f08c379a0000000000000000000000000000000000000000000000000000000008152600401610af19061163e565b60405180910390fd5b565b60008060009054906101000a900473ffffffffffffffffffffffffffffffffffffffff169050816000806101000a81548173ffffffffffffffffffffffffffffffffffffffff021916908373ffffffffffffffffffffffffffffffffffffffff1602179055508173ffffffffffffffffffffffffffffffffffffffff168173ffffffffffffffffffffffffffffffffffffffff167f8be0079c531659141344cd1fd0a4f28419497f9722a3daafe3b4186f6b6457e060405160405180910390a35050565b600033905090565b828054610bd4906113a1565b90600052602060002090601f016020900481019282610bf65760008555610c3d565b82601f10610c0f57805160ff1916838001178555610c3d565b82800160010185558215610c3d579182015b82811115610c3c578251825591602001919060010190610c21565b5b509050610c4a9190610cae565b5090565b828054828255906000526020600020908101928215610c9d579160200282015b82811115610c9c578251829080519060200190610c8c929190610bc8565b5091602001919060010190610c6e565b5b509050610caa9190610ccb565b5090565b5b80821115610cc7576000816000905550600101610caf565b5090565b5b80821115610ceb5760008181610ce29190610cef565b50600101610ccc565b5090565b508054610cfb906113a1565b6000825580601f10610d0d5750610d2c565b601f016020900490600052602060002090810190610d2b9190610cae565b5b50565b600081519050919050565b600082825260208201905092915050565b60005b83811015610d69578082015181840152602081019050610d4e565b83811115610d78576000848401525b50505050565b6000601f19601f8301169050919050565b6000610d9a82610d2f565b610da48185610d3a565b9350610db4818560208601610d4b565b610dbd81610d7e565b840191505092915050565b60006020820190508181036000830152610de28184610d8f565b905092915050565b6000604051905090565b600080fd5b600080fd5b600080fd5b600080fd5b7f4e487b7100000000000000000000000000000000000000000000000000000000600052604160045260246000fd5b610e4082610d7e565b810181811067ffffffffffffffff82111715610e5f57610e5e610e08565b5b80604052505050565b6000610e72610dea565b9050610e7e8282610e37565b919050565b600067ffffffffffffffff821115610e9e57610e9d610e08565b5b610ea782610d7e565b9050602081019050919050565b82818337600083830152505050565b6000610ed6610ed184610e83565b610e68565b905082815260208101848484011115610ef257610ef1610e03565b5b610efd848285610eb4565b509392505050565b600082601f830112610f1a57610f19610dfe565b5b8135610f2a848260208601610ec3565b91505092915050565b600060208284031215610f4957610f48610df4565b5b600082013567ffffffffffffffff811115610f6757610f66610df9565b5b610f7384828501610f05565b91505092915050565b600073ffffffffffffffffffffffffffffffffffffffff82169050919050565b6000610fa782610f7c565b9050919050565b610fb781610f9c565b8114610fc257600080fd5b50565b600081359050610fd481610fae565b92915050565b600067ffffffffffffffff821115610ff557610ff4610e08565b5b602082029050602081019050919050565b600080fd5b600061101e61101984610fda565b610e68565b9050808382526020820190506020840283018581111561104157611040611006565b5b835b8181101561108857803567ffffffffffffffff81111561106657611065610dfe565b5b8086016110738982610f05565b85526020850194505050602081019050611043565b5050509392505050565b600082601f8301126110a7576110a6610dfe565b5b81356110b784826020860161100b565b91505092915050565b600080604083850312156110d7576110d6610df4565b5b60006110e585828601610fc5565b925050602083013567ffffffffffffffff81111561110657611105610df9565b5b61111285828601611092565b9150509250929050565b6000819050919050565b61112f8161111c565b811461113a57600080fd5b50565b60008135905061114c81611126565b92915050565b60006020828403121561116857611167610df4565b5b60006111768482850161113d565b91505092915050565b61118881610f9c565b82525050565b60006020820190506111a3600083018461117f565b92915050565b6000602082840312156111bf576111be610df4565b5b60006111cd84828501610fc5565b91505092915050565b6111df8161111c565b82525050565b60006020820190506111fa60008301846111d6565b92915050565b600081519050919050565b600082825260208201905092915050565b6000819050602082019050919050565b600082825260208201905092915050565b600061124882610d2f565b611252818561122c565b9350611262818560208601610d4b565b61126b81610d7e565b840191505092915050565b6000611282838361123d565b905092915050565b6000602082019050919050565b60006112a282611200565b6112ac818561120b565b9350836020820285016112be8561121c565b8060005b858110156112fa57848403895281516112db8582611276565b94506112e68361128a565b925060208a019950506001810190506112c2565b50829750879550505050505092915050565b600060208201905081810360008301526113268184611297565b905092915050565b60008115159050919050565b6113438161132e565b82525050565b600060408201905061135e600083018561117f565b61136b602083018461133a565b9392505050565b7f4e487b7100000000000000000000000000000000000000000000000000000000600052602260045260246000fd5b600060028204905060018216806113b957607f821691505b602082108114156113cd576113cc611372565b5b50919050565b7f4d656d62657220416c6572616479204578697374730000000000000000000000600082015250565b6000611409601583610d3a565b9150611414826113d3565b602082019050919050565b60006020820190508181036000830152611438816113fc565b9050919050565b7f4e487b7100000000000000000000000000000000000000000000000000000000600052601160045260246000fd5b60006114798261111c565b91506114848361111c565b9250827fffffffffffffffffffffffffffffffffffffffffffffffffffffffffffffffff038211156114b9576114b861143f565b5b828201905092915050565b60006040820190506114d9600083018561117f565b81810360208301526114eb8184611297565b90509392505050565b7f4368616d702063616e74206265207265766f6b65640000000000000000000000600082015250565b600061152a601583610d3a565b9150611535826114f4565b602082019050919050565b600060208201905081810360008301526115598161151d565b9050919050565b7f4f776e61626c653a206e6577206f776e657220697320746865207a65726f206160008201527f6464726573730000000000000000000000000000000000000000000000000000602082015250565b60006115bc602683610d3a565b91506115c782611560565b604082019050919050565b600060208201905081810360008301526115eb816115af565b9050919050565b7f4f776e61626c653a2063616c6c6572206973206e6f7420746865206f776e6572600082015250565b6000611628602083610d3a565b9150611633826115f2565b602082019050919050565b600060208201905081810360008301526116578161161b565b905091905056fea2646970667358221220bf256c2697c19a6cf475fa7e21872bc8d18959961ecfe91abb544091403a96a864736f6c634300080a0033",
  "devdoc": {
    "kind": "dev",
    "methods": {
      "owner()": {
        "details": "Returns the address of the current owner."
      },
      "renounceOwnership()": {
        "details": "Leaves the contract without owner. It will not be possible to call `onlyOwner` functions anymore. Can only be called by the current owner. NOTE: Renouncing ownership will leave the contract without an owner, thereby removing any functionality that is only available to the owner."
      },
      "transferOwnership(address)": {
        "details": "Transfers ownership of the contract to a new account (`newOwner`). Can only be called by the current owner."
      }
    },
    "version": 1
  },
  "userdoc": {
    "kind": "user",
    "methods": {},
    "version": 1
  },
  "storageLayout": {
    "storage": [
      {
        "astId": 7,
        "contract": "contracts/Project.sol:Project",
        "label": "_owner",
        "offset": 0,
        "slot": "0",
        "type": "t_address"
      },
      {
        "astId": 141,
        "contract": "contracts/Project.sol:Project",
        "label": "numberOfMembers",
        "offset": 0,
        "slot": "1",
        "type": "t_uint256"
      },
      {
        "astId": 143,
        "contract": "contracts/Project.sol:Project",
        "label": "name",
        "offset": 0,
        "slot": "2",
        "type": "t_string_storage"
      },
      {
        "astId": 145,
        "contract": "contracts/Project.sol:Project",
        "label": "desc",
        "offset": 0,
        "slot": "3",
        "type": "t_string_storage"
      },
      {
        "astId": 148,
        "contract": "contracts/Project.sol:Project",
        "label": "membersAddresses",
        "offset": 0,
        "slot": "4",
        "type": "t_array(t_address)dyn_storage"
      },
      {
        "astId": 161,
        "contract": "contracts/Project.sol:Project",
        "label": "Members",
        "offset": 0,
        "slot": "5",
        "type": "t_mapping(t_address,t_struct(Member)156_storage)"
      }
    ],
    "types": {
      "t_address": {
        "encoding": "inplace",
        "label": "address",
        "numberOfBytes": "20"
      },
      "t_array(t_address)dyn_storage": {
        "base": "t_address",
        "encoding": "dynamic_array",
        "label": "address[]",
        "numberOfBytes": "32"
      },
      "t_array(t_string_storage)dyn_storage": {
        "base": "t_string_storage",
        "encoding": "dynamic_array",
        "label": "string[]",
        "numberOfBytes": "32"
      },
      "t_bool": {
        "encoding": "inplace",
        "label": "bool",
        "numberOfBytes": "1"
      },
      "t_mapping(t_address,t_struct(Member)156_storage)": {
        "encoding": "mapping",
        "key": "t_address",
        "label": "mapping(address => struct Project.Member)",
        "numberOfBytes": "32",
        "value": "t_struct(Member)156_storage"
      },
      "t_string_storage": {
        "encoding": "bytes",
        "label": "string",
        "numberOfBytes": "32"
      },
      "t_struct(Member)156_storage": {
        "encoding": "inplace",
        "label": "struct Project.Member",
        "members": [
          {
            "astId": 150,
            "contract": "contracts/Project.sol:Project",
            "label": "member",
            "offset": 0,
            "slot": "0",
            "type": "t_address"
          },
          {
            "astId": 153,
            "contract": "contracts/Project.sol:Project",
            "label": "role",
            "offset": 0,
            "slot": "1",
            "type": "t_array(t_string_storage)dyn_storage"
          },
          {
            "astId": 155,
            "contract": "contracts/Project.sol:Project",
            "label": "access",
            "offset": 0,
            "slot": "2",
            "type": "t_bool"
          }
        ],
        "numberOfBytes": "96"
      },
      "t_uint256": {
        "encoding": "inplace",
        "label": "uint256",
        "numberOfBytes": "32"
      }
    }
  }
}