{
  "address": "0xa3bF627e80782c06C9ec0520C7F2546a9Af5CF70",
  "abi": [
    {
      "anonymous": false,
      "inputs": [
        {
          "indexed": true,
          "internalType": "address",
          "name": "previousOwner",
          "type": "address"
        },
        {
          "indexed": true,
          "internalType": "address",
          "name": "newOwner",
          "type": "address"
        }
      ],
      "name": "OwnershipTransferred",
      "type": "event"
    },
    {
      "inputs": [
        {
          "internalType": "address",
          "name": "_champ",
          "type": "address"
        },
        {
          "internalType": "string",
          "name": "_projectName",
          "type": "string"
        },
        {
          "internalType": "string",
          "name": "_desc",
          "type": "string"
        },
        {
          "internalType": "string[]",
          "name": "_adminroles",
          "type": "string[]"
        }
      ],
      "name": "createProject",
      "outputs": [],
      "stateMutability": "nonpayable",
      "type": "function"
    },
    {
      "inputs": [
        {
          "internalType": "address",
          "name": "",
          "type": "address"
        }
      ],
      "name": "numberOfProjects",
      "outputs": [
        {
          "internalType": "uint256",
          "name": "",
          "type": "uint256"
        }
      ],
      "stateMutability": "view",
      "type": "function"
    },
    {
      "inputs": [],
      "name": "owner",
      "outputs": [
        {
          "internalType": "address",
          "name": "",
          "type": "address"
        }
      ],
      "stateMutability": "view",
      "type": "function"
    },
    {
      "inputs": [
        {
          "internalType": "address",
          "name": "",
          "type": "address"
        },
        {
          "internalType": "uint256",
          "name": "",
          "type": "uint256"
        }
      ],
      "name": "projects",
      "outputs": [
        {
          "internalType": "address",
          "name": "project",
          "type": "address"
        },
        {
          "internalType": "address",
          "name": "champ",
          "type": "address"
        },
        {
          "internalType": "string",
          "name": "projecetName",
          "type": "string"
        }
      ],
      "stateMutability": "view",
      "type": "function"
    },
    {
      "inputs": [],
      "name": "renounceOwnership",
      "outputs": [],
      "stateMutability": "nonpayable",
      "type": "function"
    },
    {
      "inputs": [
        {
          "internalType": "address",
          "name": "newOwner",
          "type": "address"
        }
      ],
      "name": "transferOwnership",
      "outputs": [],
      "stateMutability": "nonpayable",
      "type": "function"
    }
  ],
  "transactionHash": "0xbc00f59d6910d86c5ba94ac77ec8e67f7c80d1d3d14046623fc8b0f8fa07825e",
  "args": [],
  "numDeployments": 1,
  "solcInputHash": "ce11a30bf6ef194dba73716e23796b39",
  "bytecode": "0x608060405234801561001057600080fd5b5061002d61002261003260201b60201c565b61003a60201b60201c565b6100fe565b600033905090565b60008060009054906101000a900473ffffffffffffffffffffffffffffffffffffffff169050816000806101000a81548173ffffffffffffffffffffffffffffffffffffffff021916908373ffffffffffffffffffffffffffffffffffffffff1602179055508173ffffffffffffffffffffffffffffffffffffffff168173ffffffffffffffffffffffffffffffffffffffff167f8be0079c531659141344cd1fd0a4f28419497f9722a3daafe3b4186f6b6457e060405160405180910390a35050565b6131cf8061010d6000396000f3fe60806040523480156200001157600080fd5b50600436106200006a5760003560e01c80637015052b146200006f578063715018a6146200008f5780637747eecf146200009b5780637ecdd3c514620000d15780638da5cb5b1462000109578063f2fde38b146200012b575b600080fd5b6200008d6004803603810190620000879190620008e0565b6200014b565b005b6200009962000399565b005b620000b96004803603810190620000b39190620009bd565b620003b1565b604051620000c8919062000a0a565b60405180910390f35b620000ef6004803603810190620000e9919062000a58565b620003c9565b604051620001009392919062000b54565b60405180910390f35b62000113620004e1565b60405162000122919062000b98565b60405180910390f35b620001496004803603810190620001439190620009bd565b6200050a565b005b6000878787878787876040516200016290620006e6565b62000174979695949392919062000d78565b604051809103906000f08015801562000191573d6000803e3d6000fd5b509050600160008973ffffffffffffffffffffffffffffffffffffffff1673ffffffffffffffffffffffffffffffffffffffff16815260200190815260200160002060405180606001604052808373ffffffffffffffffffffffffffffffffffffffff1681526020018a73ffffffffffffffffffffffffffffffffffffffff16815260200189898080601f016020809104026020016040519081016040528093929190818152602001838380828437600081840152601f19601f82011690508083019250505050505050815250908060018154018082558091505060019003906000526020600020906003020160009091909190915060008201518160000160006101000a81548173ffffffffffffffffffffffffffffffffffffffff021916908373ffffffffffffffffffffffffffffffffffffffff16021790555060208201518160010160006101000a81548173ffffffffffffffffffffffffffffffffffffffff021916908373ffffffffffffffffffffffffffffffffffffffff160217905550604082015181600201908051906020019062000333929190620006f4565b5050506001600260008a73ffffffffffffffffffffffffffffffffffffffff1673ffffffffffffffffffffffffffffffffffffffff168152602001908152602001600020600082825462000388919062000e0f565b925050819055505050505050505050565b620003a362000595565b620003af60006200061a565b565b60026020528060005260406000206000915090505481565b60016020528160005260406000208181548110620003e657600080fd5b9060005260206000209060030201600091509150508060000160009054906101000a900473ffffffffffffffffffffffffffffffffffffffff16908060010160009054906101000a900473ffffffffffffffffffffffffffffffffffffffff1690806002018054620004589062000e9b565b80601f0160208091040260200160405190810160405280929190818152602001828054620004869062000e9b565b8015620004d75780601f10620004ab57610100808354040283529160200191620004d7565b820191906000526020600020905b815481529060010190602001808311620004b957829003601f168201915b5050505050905083565b60008060009054906101000a900473ffffffffffffffffffffffffffffffffffffffff16905090565b6200051462000595565b600073ffffffffffffffffffffffffffffffffffffffff168173ffffffffffffffffffffffffffffffffffffffff16141562000587576040517f08c379a00000000000000000000000000000000000000000000000000000000081526004016200057e9062000f47565b60405180910390fd5b62000592816200061a565b50565b6200059f620006de565b73ffffffffffffffffffffffffffffffffffffffff16620005bf620004e1565b73ffffffffffffffffffffffffffffffffffffffff161462000618576040517f08c379a00000000000000000000000000000000000000000000000000000000081526004016200060f9062000fb9565b60405180910390fd5b565b60008060009054906101000a900473ffffffffffffffffffffffffffffffffffffffff169050816000806101000a81548173ffffffffffffffffffffffffffffffffffffffff021916908373ffffffffffffffffffffffffffffffffffffffff1602179055508173ffffffffffffffffffffffffffffffffffffffff168173ffffffffffffffffffffffffffffffffffffffff167f8be0079c531659141344cd1fd0a4f28419497f9722a3daafe3b4186f6b6457e060405160405180910390a35050565b600033905090565b6121be8062000fdc83390190565b828054620007029062000e9b565b90600052602060002090601f01602090048101928262000726576000855562000772565b82601f106200074157805160ff191683800117855562000772565b8280016001018555821562000772579182015b828111156200077157825182559160200191906001019062000754565b5b50905062000781919062000785565b5090565b5b80821115620007a057600081600090555060010162000786565b5090565b600080fd5b600080fd5b600073ffffffffffffffffffffffffffffffffffffffff82169050919050565b6000620007db82620007ae565b9050919050565b620007ed81620007ce565b8114620007f957600080fd5b50565b6000813590506200080d81620007e2565b92915050565b600080fd5b600080fd5b600080fd5b60008083601f8401126200083b576200083a62000813565b5b8235905067ffffffffffffffff8111156200085b576200085a62000818565b5b6020830191508360018202830111156200087a57620008796200081d565b5b9250929050565b60008083601f8401126200089a576200089962000813565b5b8235905067ffffffffffffffff811115620008ba57620008b962000818565b5b602083019150836020820283011115620008d957620008d86200081d565b5b9250929050565b60008060008060008060006080888a031215620009025762000901620007a4565b5b6000620009128a828b01620007fc565b975050602088013567ffffffffffffffff811115620009365762000935620007a9565b5b620009448a828b0162000822565b9650965050604088013567ffffffffffffffff8111156200096a5762000969620007a9565b5b620009788a828b0162000822565b9450945050606088013567ffffffffffffffff8111156200099e576200099d620007a9565b5b620009ac8a828b0162000881565b925092505092959891949750929550565b600060208284031215620009d657620009d5620007a4565b5b6000620009e684828501620007fc565b91505092915050565b6000819050919050565b62000a0481620009ef565b82525050565b600060208201905062000a216000830184620009f9565b92915050565b62000a3281620009ef565b811462000a3e57600080fd5b50565b60008135905062000a528162000a27565b92915050565b6000806040838503121562000a725762000a71620007a4565b5b600062000a8285828601620007fc565b925050602062000a958582860162000a41565b9150509250929050565b62000aaa81620007ce565b82525050565b600081519050919050565b600082825260208201905092915050565b60005b8381101562000aec57808201518184015260208101905062000acf565b8381111562000afc576000848401525b50505050565b6000601f19601f8301169050919050565b600062000b208262000ab0565b62000b2c818562000abb565b935062000b3e81856020860162000acc565b62000b498162000b02565b840191505092915050565b600060608201905062000b6b600083018662000a9f565b62000b7a602083018562000a9f565b818103604083015262000b8e818462000b13565b9050949350505050565b600060208201905062000baf600083018462000a9f565b92915050565b82818337600083830152505050565b600062000bd2838562000abb565b935062000be183858462000bb5565b62000bec8362000b02565b840190509392505050565b600082825260208201905092915050565b6000819050919050565b600082825260208201905092915050565b600062000c31838562000c12565b935062000c4083858462000bb5565b62000c4b8362000b02565b840190509392505050565b600062000c6584848462000c23565b90509392505050565b600080fd5b600080fd5b600080fd5b6000808335600160200384360303811262000c9d5762000c9c62000c78565b5b83810192508235915060208301925067ffffffffffffffff82111562000cc85762000cc762000c6e565b5b60018202360384131562000ce15762000ce062000c73565b5b509250929050565b6000602082019050919050565b600062000d04838562000bf7565b93508360208402850162000d188462000c08565b8060005b8781101562000d6657848403895262000d36828462000c7d565b62000d4386828462000c56565b955062000d508462000ce9565b935060208b019a50505060018101905062000d1c565b50829750879450505050509392505050565b600060808201905062000d8f600083018a62000a9f565b818103602083015262000da481888a62000bc4565b9050818103604083015262000dbb81868862000bc4565b9050818103606083015262000dd281848662000cf6565b905098975050505050505050565b7f4e487b7100000000000000000000000000000000000000000000000000000000600052601160045260246000fd5b600062000e1c82620009ef565b915062000e2983620009ef565b9250827fffffffffffffffffffffffffffffffffffffffffffffffffffffffffffffffff0382111562000e615762000e6062000de0565b5b828201905092915050565b7f4e487b7100000000000000000000000000000000000000000000000000000000600052602260045260246000fd5b6000600282049050600182168062000eb457607f821691505b6020821081141562000ecb5762000eca62000e6c565b5b50919050565b7f4f776e61626c653a206e6577206f776e657220697320746865207a65726f206160008201527f6464726573730000000000000000000000000000000000000000000000000000602082015250565b600062000f2f60268362000abb565b915062000f3c8262000ed1565b604082019050919050565b6000602082019050818103600083015262000f628162000f20565b9050919050565b7f4f776e61626c653a2063616c6c6572206973206e6f7420746865206f776e6572600082015250565b600062000fa160208362000abb565b915062000fae8262000f69565b602082019050919050565b6000602082019050818103600083015262000fd48162000f92565b905091905056fe60806040523480156200001157600080fd5b50604051620021be380380620021be83398181016040528101906200003791906200089e565b620000576200004b620001fe60201b60201c565b6200020660201b60201c565b6200006884620002ca60201b60201c565b600060018190555060405180606001604052808573ffffffffffffffffffffffffffffffffffffffff16815260200182815260200160011515815250600460008673ffffffffffffffffffffffffffffffffffffffff1673ffffffffffffffffffffffffffffffffffffffff16815260200190815260200160002060008201518160000160006101000a81548173ffffffffffffffffffffffffffffffffffffffff021916908373ffffffffffffffffffffffffffffffffffffffff1602179055506020820151816001019080519060200190620001489291906200041b565b5060408201518160020160006101000a81548160ff0219169083151502179055509050506001806000828254620001809190620009a6565b925050819055507fd2467e481f7d87a173b743229338eb0ddb0754e69a7420e9e58c4fe254c7ab9b8482604051620001ba92919062000b41565b60405180910390a18260029080519060200190620001da92919062000482565b508160039080519060200190620001f392919062000482565b505050505062000cf5565b600033905090565b60008060009054906101000a900473ffffffffffffffffffffffffffffffffffffffff169050816000806101000a81548173ffffffffffffffffffffffffffffffffffffffff021916908373ffffffffffffffffffffffffffffffffffffffff1602179055508173ffffffffffffffffffffffffffffffffffffffff168173ffffffffffffffffffffffffffffffffffffffff167f8be0079c531659141344cd1fd0a4f28419497f9722a3daafe3b4186f6b6457e060405160405180910390a35050565b620002da6200036160201b60201c565b600073ffffffffffffffffffffffffffffffffffffffff168173ffffffffffffffffffffffffffffffffffffffff1614156200034d576040517f08c379a0000000000000000000000000000000000000000000000000000000008152600401620003449062000bfc565b60405180910390fd5b6200035e816200020660201b60201c565b50565b62000371620001fe60201b60201c565b73ffffffffffffffffffffffffffffffffffffffff1662000397620003f260201b60201c565b73ffffffffffffffffffffffffffffffffffffffff1614620003f0576040517f08c379a0000000000000000000000000000000000000000000000000000000008152600401620003e79062000c6e565b60405180910390fd5b565b60008060009054906101000a900473ffffffffffffffffffffffffffffffffffffffff16905090565b8280548282559060005260206000209081019282156200046f579160200282015b828111156200046e5782518290805190602001906200045d92919062000482565b50916020019190600101906200043c565b5b5090506200047e919062000513565b5090565b828054620004909062000cbf565b90600052602060002090601f016020900481019282620004b4576000855562000500565b82601f10620004cf57805160ff191683800117855562000500565b8280016001018555821562000500579182015b82811115620004ff578251825591602001919060010190620004e2565b5b5090506200050f91906200053b565b5090565b5b808211156200053757600081816200052d91906200055a565b5060010162000514565b5090565b5b80821115620005565760008160009055506001016200053c565b5090565b508054620005689062000cbf565b6000825580601f106200057c57506200059d565b601f0160209004906000526020600020908101906200059c91906200053b565b5b50565b6000604051905090565b600080fd5b600080fd5b600073ffffffffffffffffffffffffffffffffffffffff82169050919050565b6000620005e182620005b4565b9050919050565b620005f381620005d4565b8114620005ff57600080fd5b50565b6000815190506200061381620005e8565b92915050565b600080fd5b600080fd5b6000601f19601f8301169050919050565b7f4e487b7100000000000000000000000000000000000000000000000000000000600052604160045260246000fd5b6200066e8262000623565b810181811067ffffffffffffffff8211171562000690576200068f62000634565b5b80604052505050565b6000620006a5620005a0565b9050620006b3828262000663565b919050565b600067ffffffffffffffff821115620006d657620006d562000634565b5b620006e18262000623565b9050602081019050919050565b60005b838110156200070e578082015181840152602081019050620006f1565b838111156200071e576000848401525b50505050565b60006200073b6200073584620006b8565b62000699565b9050828152602081018484840111156200075a57620007596200061e565b5b62000767848285620006ee565b509392505050565b600082601f83011262000787576200078662000619565b5b81516200079984826020860162000724565b91505092915050565b600067ffffffffffffffff821115620007c057620007bf62000634565b5b602082029050602081019050919050565b600080fd5b6000620007ed620007e784620007a2565b62000699565b90508083825260208201905060208402830185811115620008135762000812620007d1565b5b835b818110156200086157805167ffffffffffffffff8111156200083c576200083b62000619565b5b8086016200084b89826200076f565b8552602085019450505060208101905062000815565b5050509392505050565b600082601f83011262000883576200088262000619565b5b815162000895848260208601620007d6565b91505092915050565b60008060008060808587031215620008bb57620008ba620005aa565b5b6000620008cb8782880162000602565b945050602085015167ffffffffffffffff811115620008ef57620008ee620005af565b5b620008fd878288016200076f565b935050604085015167ffffffffffffffff811115620009215762000920620005af565b5b6200092f878288016200076f565b925050606085015167ffffffffffffffff811115620009535762000952620005af565b5b62000961878288016200086b565b91505092959194509250565b6000819050919050565b7f4e487b7100000000000000000000000000000000000000000000000000000000600052601160045260246000fd5b6000620009b3826200096d565b9150620009c0836200096d565b9250827fffffffffffffffffffffffffffffffffffffffffffffffffffffffffffffffff03821115620009f857620009f762000977565b5b828201905092915050565b62000a0e81620005d4565b82525050565b600081519050919050565b600082825260208201905092915050565b6000819050602082019050919050565b600081519050919050565b600082825260208201905092915050565b600062000a698262000a40565b62000a75818562000a4b565b935062000a87818560208601620006ee565b62000a928162000623565b840191505092915050565b600062000aab838362000a5c565b905092915050565b6000602082019050919050565b600062000acd8262000a14565b62000ad9818562000a1f565b93508360208202850162000aed8562000a30565b8060005b8581101562000b2f578484038952815162000b0d858262000a9d565b945062000b1a8362000ab3565b925060208a0199505060018101905062000af1565b50829750879550505050505092915050565b600060408201905062000b58600083018562000a03565b818103602083015262000b6c818462000ac0565b90509392505050565b600082825260208201905092915050565b7f4f776e61626c653a206e6577206f776e657220697320746865207a65726f206160008201527f6464726573730000000000000000000000000000000000000000000000000000602082015250565b600062000be460268362000b75565b915062000bf18262000b86565b604082019050919050565b6000602082019050818103600083015262000c178162000bd5565b9050919050565b7f4f776e61626c653a2063616c6c6572206973206e6f7420746865206f776e6572600082015250565b600062000c5660208362000b75565b915062000c638262000c1e565b602082019050919050565b6000602082019050818103600083015262000c898162000c47565b9050919050565b7f4e487b7100000000000000000000000000000000000000000000000000000000600052602260045260246000fd5b6000600282049050600182168062000cd857607f821691505b6020821081141562000cef5762000cee62000c90565b5b50919050565b6114b98062000d056000396000f3fe608060405234801561001057600080fd5b50600436106100cf5760003560e01c80638adf23b91161008c578063c6da612811610066578063c6da6128146101c6578063ce6ccfaf146101e2578063f2fde38b14610212578063fd0f01661461022e576100cf565b80638adf23b91461016e5780638da5cb5b1461018a578063a30e3fa9146101a8576100cf565b806306fdde03146100d457806323a22bcb146100f25780632e9a288e1461010e57806355f150f11461012a5780636423d52514610148578063715018a614610164575b600080fd5b6100dc61025f565b6040516100e99190610c7e565b60405180910390f35b61010c60048036038101906101079190610de9565b6102ed565b005b61012860048036038101906101239190610f76565b61030f565b005b610132610372565b60405161013f9190610c7e565b60405180910390f35b610162600480360381019061015d9190610f76565b610400565b005b61016c610629565b005b61018860048036038101906101839190610fd2565b61063d565b005b6101926106f3565b60405161019f919061100e565b60405180910390f35b6101b061071c565b6040516101bd9190611042565b60405180910390f35b6101e060048036038101906101db9190610de9565b610722565b005b6101fc60048036038101906101f79190610fd2565b610744565b6040516102099190611169565b60405180910390f35b61022c60048036038101906102279190610fd2565b61085f565b005b61024860048036038101906102439190610fd2565b6108e3565b6040516102569291906111a6565b60405180910390f35b6002805461026c906111fe565b80601f0160208091040260200160405190810160405280929190818152602001828054610298906111fe565b80156102e55780601f106102ba576101008083540402835291602001916102e5565b820191906000526020600020905b8154815290600101906020018083116102c857829003601f168201915b505050505081565b6102f5610934565b806003908051906020019061030b929190610a7e565b5050565b610317610934565b80600460008473ffffffffffffffffffffffffffffffffffffffff1673ffffffffffffffffffffffffffffffffffffffff168152602001908152602001600020600101908051906020019061036d929190610b04565b505050565b6003805461037f906111fe565b80601f01602080910402602001604051908101604052809291908181526020018280546103ab906111fe565b80156103f85780601f106103cd576101008083540402835291602001916103f8565b820191906000526020600020905b8154815290600101906020018083116103db57829003601f168201915b505050505081565b610408610934565b600073ffffffffffffffffffffffffffffffffffffffff16600460008473ffffffffffffffffffffffffffffffffffffffff1673ffffffffffffffffffffffffffffffffffffffff16815260200190815260200160002060000160009054906101000a900473ffffffffffffffffffffffffffffffffffffffff1673ffffffffffffffffffffffffffffffffffffffff16146104d9576040517f08c379a00000000000000000000000000000000000000000000000000000000081526004016104d09061127c565b60405180910390fd5b60405180606001604052808373ffffffffffffffffffffffffffffffffffffffff16815260200182815260200160011515815250600460008473ffffffffffffffffffffffffffffffffffffffff1673ffffffffffffffffffffffffffffffffffffffff16815260200190815260200160002060008201518160000160006101000a81548173ffffffffffffffffffffffffffffffffffffffff021916908373ffffffffffffffffffffffffffffffffffffffff16021790555060208201518160010190805190602001906105af929190610b04565b5060408201518160020160006101000a81548160ff02191690831515021790555090505060018060008282546105e591906112cb565b925050819055507fd2467e481f7d87a173b743229338eb0ddb0754e69a7420e9e58c4fe254c7ab9b828260405161061d929190611321565b60405180910390a15050565b610631610934565b61063b60006109b2565b565b610645610934565b6000600460008373ffffffffffffffffffffffffffffffffffffffff1673ffffffffffffffffffffffffffffffffffffffff16815260200190815260200160002060020160006101000a81548160ff02191690831515021790555060018060008282546106b29190611351565b925050819055507f745cd29407db644ed93e3ceb61cbcab96d1dfb496989ac5d5bf514fc5a9fab9c816040516106e8919061100e565b60405180910390a150565b60008060009054906101000a900473ffffffffffffffffffffffffffffffffffffffff16905090565b60015481565b61072a610934565b8060029080519060200190610740929190610a7e565b5050565b6060600460008373ffffffffffffffffffffffffffffffffffffffff1673ffffffffffffffffffffffffffffffffffffffff168152602001908152602001600020600101805480602002602001604051908101604052809291908181526020016000905b828210156108545783829060005260206000200180546107c7906111fe565b80601f01602080910402602001604051908101604052809291908181526020018280546107f3906111fe565b80156108405780601f1061081557610100808354040283529160200191610840565b820191906000526020600020905b81548152906001019060200180831161082357829003601f168201915b5050505050815260200190600101906107a8565b505050509050919050565b610867610934565b600073ffffffffffffffffffffffffffffffffffffffff168173ffffffffffffffffffffffffffffffffffffffff1614156108d7576040517f08c379a00000000000000000000000000000000000000000000000000000000081526004016108ce906113f7565b60405180910390fd5b6108e0816109b2565b50565b60046020528060005260406000206000915090508060000160009054906101000a900473ffffffffffffffffffffffffffffffffffffffff16908060020160009054906101000a900460ff16905082565b61093c610a76565b73ffffffffffffffffffffffffffffffffffffffff1661095a6106f3565b73ffffffffffffffffffffffffffffffffffffffff16146109b0576040517f08c379a00000000000000000000000000000000000000000000000000000000081526004016109a790611463565b60405180910390fd5b565b60008060009054906101000a900473ffffffffffffffffffffffffffffffffffffffff169050816000806101000a81548173ffffffffffffffffffffffffffffffffffffffff021916908373ffffffffffffffffffffffffffffffffffffffff1602179055508173ffffffffffffffffffffffffffffffffffffffff168173ffffffffffffffffffffffffffffffffffffffff167f8be0079c531659141344cd1fd0a4f28419497f9722a3daafe3b4186f6b6457e060405160405180910390a35050565b600033905090565b828054610a8a906111fe565b90600052602060002090601f016020900481019282610aac5760008555610af3565b82601f10610ac557805160ff1916838001178555610af3565b82800160010185558215610af3579182015b82811115610af2578251825591602001919060010190610ad7565b5b509050610b009190610b64565b5090565b828054828255906000526020600020908101928215610b53579160200282015b82811115610b52578251829080519060200190610b42929190610a7e565b5091602001919060010190610b24565b5b509050610b609190610b81565b5090565b5b80821115610b7d576000816000905550600101610b65565b5090565b5b80821115610ba15760008181610b989190610ba5565b50600101610b82565b5090565b508054610bb1906111fe565b6000825580601f10610bc35750610be2565b601f016020900490600052602060002090810190610be19190610b64565b5b50565b600081519050919050565b600082825260208201905092915050565b60005b83811015610c1f578082015181840152602081019050610c04565b83811115610c2e576000848401525b50505050565b6000601f19601f8301169050919050565b6000610c5082610be5565b610c5a8185610bf0565b9350610c6a818560208601610c01565b610c7381610c34565b840191505092915050565b60006020820190508181036000830152610c988184610c45565b905092915050565b6000604051905090565b600080fd5b600080fd5b600080fd5b600080fd5b7f4e487b7100000000000000000000000000000000000000000000000000000000600052604160045260246000fd5b610cf682610c34565b810181811067ffffffffffffffff82111715610d1557610d14610cbe565b5b80604052505050565b6000610d28610ca0565b9050610d348282610ced565b919050565b600067ffffffffffffffff821115610d5457610d53610cbe565b5b610d5d82610c34565b9050602081019050919050565b82818337600083830152505050565b6000610d8c610d8784610d39565b610d1e565b905082815260208101848484011115610da857610da7610cb9565b5b610db3848285610d6a565b509392505050565b600082601f830112610dd057610dcf610cb4565b5b8135610de0848260208601610d79565b91505092915050565b600060208284031215610dff57610dfe610caa565b5b600082013567ffffffffffffffff811115610e1d57610e1c610caf565b5b610e2984828501610dbb565b91505092915050565b600073ffffffffffffffffffffffffffffffffffffffff82169050919050565b6000610e5d82610e32565b9050919050565b610e6d81610e52565b8114610e7857600080fd5b50565b600081359050610e8a81610e64565b92915050565b600067ffffffffffffffff821115610eab57610eaa610cbe565b5b602082029050602081019050919050565b600080fd5b6000610ed4610ecf84610e90565b610d1e565b90508083825260208201905060208402830185811115610ef757610ef6610ebc565b5b835b81811015610f3e57803567ffffffffffffffff811115610f1c57610f1b610cb4565b5b808601610f298982610dbb565b85526020850194505050602081019050610ef9565b5050509392505050565b600082601f830112610f5d57610f5c610cb4565b5b8135610f6d848260208601610ec1565b91505092915050565b60008060408385031215610f8d57610f8c610caa565b5b6000610f9b85828601610e7b565b925050602083013567ffffffffffffffff811115610fbc57610fbb610caf565b5b610fc885828601610f48565b9150509250929050565b600060208284031215610fe857610fe7610caa565b5b6000610ff684828501610e7b565b91505092915050565b61100881610e52565b82525050565b60006020820190506110236000830184610fff565b92915050565b6000819050919050565b61103c81611029565b82525050565b60006020820190506110576000830184611033565b92915050565b600081519050919050565b600082825260208201905092915050565b6000819050602082019050919050565b600082825260208201905092915050565b60006110a582610be5565b6110af8185611089565b93506110bf818560208601610c01565b6110c881610c34565b840191505092915050565b60006110df838361109a565b905092915050565b6000602082019050919050565b60006110ff8261105d565b6111098185611068565b93508360208202850161111b85611079565b8060005b85811015611157578484038952815161113885826110d3565b9450611143836110e7565b925060208a0199505060018101905061111f565b50829750879550505050505092915050565b6000602082019050818103600083015261118381846110f4565b905092915050565b60008115159050919050565b6111a08161118b565b82525050565b60006040820190506111bb6000830185610fff565b6111c86020830184611197565b9392505050565b7f4e487b7100000000000000000000000000000000000000000000000000000000600052602260045260246000fd5b6000600282049050600182168061121657607f821691505b6020821081141561122a576112296111cf565b5b50919050565b7f4d656d62657220416c6572616479204578697374730000000000000000000000600082015250565b6000611266601583610bf0565b915061127182611230565b602082019050919050565b6000602082019050818103600083015261129581611259565b9050919050565b7f4e487b7100000000000000000000000000000000000000000000000000000000600052601160045260246000fd5b60006112d682611029565b91506112e183611029565b9250827fffffffffffffffffffffffffffffffffffffffffffffffffffffffffffffffff038211156113165761131561129c565b5b828201905092915050565b60006040820190506113366000830185610fff565b818103602083015261134881846110f4565b90509392505050565b600061135c82611029565b915061136783611029565b92508282101561137a5761137961129c565b5b828203905092915050565b7f4f776e61626c653a206e6577206f776e657220697320746865207a65726f206160008201527f6464726573730000000000000000000000000000000000000000000000000000602082015250565b60006113e1602683610bf0565b91506113ec82611385565b604082019050919050565b60006020820190508181036000830152611410816113d4565b9050919050565b7f4f776e61626c653a2063616c6c6572206973206e6f7420746865206f776e6572600082015250565b600061144d602083610bf0565b915061145882611417565b602082019050919050565b6000602082019050818103600083015261147c81611440565b905091905056fea264697066735822122044845f42fac77645fff1331c2a3d9391580c6c12908e15823a19bbfd92743fdb64736f6c634300080a0033a2646970667358221220ed89111ae5db3f3ba19cf962beb6dc9f100487fbd1258997fbb1a4deb0deaadf64736f6c634300080a0033",
  "devdoc": {
    "kind": "dev",
    "methods": {
      "owner()": {
        "details": "Returns the address of the current owner."
      },
      "renounceOwnership()": {
        "details": "Leaves the contract without owner. It will not be possible to call `onlyOwner` functions anymore. Can only be called by the current owner. NOTE: Renouncing ownership will leave the contract without an owner, thereby removing any functionality that is only available to the owner."
      },
      "transferOwnership(address)": {
        "details": "Transfers ownership of the contract to a new account (`newOwner`). Can only be called by the current owner."
      }
    },
    "version": 1
  },
  "userdoc": {
    "kind": "user",
    "methods": {},
    "version": 1
  },
  "storageLayout": {
    "storage": [
      {
        "astId": 7,
        "contract": "contracts/ProjectFactory.sol:ProjectFactory",
        "label": "_owner",
        "offset": 0,
        "slot": "0",
        "type": "t_address"
      },
      {
        "astId": 359,
        "contract": "contracts/ProjectFactory.sol:ProjectFactory",
        "label": "projects",
        "offset": 0,
        "slot": "1",
        "type": "t_mapping(t_address,t_array(t_struct(ProjectDesc)353_storage)dyn_storage)"
      },
      {
        "astId": 363,
        "contract": "contracts/ProjectFactory.sol:ProjectFactory",
        "label": "numberOfProjects",
        "offset": 0,
        "slot": "2",
        "type": "t_mapping(t_address,t_uint256)"
      }
    ],
    "types": {
      "t_address": {
        "encoding": "inplace",
        "label": "address",
        "numberOfBytes": "20"
      },
      "t_array(t_struct(ProjectDesc)353_storage)dyn_storage": {
        "base": "t_struct(ProjectDesc)353_storage",
        "encoding": "dynamic_array",
        "label": "struct ProjectFactory.ProjectDesc[]",
        "numberOfBytes": "32"
      },
      "t_mapping(t_address,t_array(t_struct(ProjectDesc)353_storage)dyn_storage)": {
        "encoding": "mapping",
        "key": "t_address",
        "label": "mapping(address => struct ProjectFactory.ProjectDesc[])",
        "numberOfBytes": "32",
        "value": "t_array(t_struct(ProjectDesc)353_storage)dyn_storage"
      },
      "t_mapping(t_address,t_uint256)": {
        "encoding": "mapping",
        "key": "t_address",
        "label": "mapping(address => uint256)",
        "numberOfBytes": "32",
        "value": "t_uint256"
      },
      "t_string_storage": {
        "encoding": "bytes",
        "label": "string",
        "numberOfBytes": "32"
      },
      "t_struct(ProjectDesc)353_storage": {
        "encoding": "inplace",
        "label": "struct ProjectFactory.ProjectDesc",
        "members": [
          {
            "astId": 348,
            "contract": "contracts/ProjectFactory.sol:ProjectFactory",
            "label": "project",
            "offset": 0,
            "slot": "0",
            "type": "t_address"
          },
          {
            "astId": 350,
            "contract": "contracts/ProjectFactory.sol:ProjectFactory",
            "label": "champ",
            "offset": 0,
            "slot": "1",
            "type": "t_address"
          },
          {
            "astId": 352,
            "contract": "contracts/ProjectFactory.sol:ProjectFactory",
            "label": "projecetName",
            "offset": 0,
            "slot": "2",
            "type": "t_string_storage"
          }
        ],
        "numberOfBytes": "96"
      },
      "t_uint256": {
        "encoding": "inplace",
        "label": "uint256",
        "numberOfBytes": "32"
      }
    }
  }
}